:100000000C943E000C9453000C9453000C94530039
:100010000C9453000C9453000C9453000C94530014
:100020000C9453000C9453000C9453000C94530004
:100030000C9453000C9453000C9453000C945300F4
:100040000C9453000C9453000C9453000C945300E4
:100050000C9453000C9453000C9453000C945300D4
:100060000C9453000C9453000C9453000C945300C4
:100070000C9453000C9453000C94530011241FBE95
:10008000CFEFD8E0DEBFCDBF11E0A0E0B1E0EAE8FD
:10009000F5E002C005900D92A230B107D9F70E9499
:1000A00071020C94C3020C940000089580EA8093BE
:1000B00000011092B90080E28093B800089520E812
:1000C000FC0120830C945600982F9370891305C06F
:1000D000880F806A8093000108958FEF089594EA55
:1000E00024E89093BC008091BC0087FFFCCF8091F6
:1000F00000018093BB002093BC008091BC0087FF6F
:10010000FCCF8091B900883161F784EA8093BC000C
:100110008091BC0087FFFCCF809100018093BB00E1
:1001200084E88093BC008091BC0087FFFCCF709373
:10013000BB0084E88093BC008091BC0087FFFCCFAB
:100140006093BB0084E88093BC008091BC0087FF73
:10015000FCCF8091BC0087FFFCCF84EA8093BC0079
:100160008091BC0087FFFCCF809100018F5F80935E
:10017000BB0084E88093BC008091BC0087FFFCCF6B
:1001800084E88093BC008091BC0087FFFCCF809105
:10019000BB00FA01808384E98093BC0080E008956D
:1001A00094EA34E89093BC008091BC0087FFFCCFB8
:1001B000809100018093BB003093BC008091BC0013
:1001C00087FFFCCF8091B900883161F784EA809382
:1001D000BC008091BC0087FFFCCF80910001809320
:1001E000BB0084E88093BC008091BC0087FFFCCFFB
:1001F0007093BB0084E88093BC008091BC0087FFB3
:10020000FCCF6093BB0084E88093BC008091BC006D
:1002100087FFFCCF84EA8093BC008091BC0087FFFD
:10022000FCCF809100018F5F8093BB0084E88093B6
:10023000BC008091BC0087FFFCCFFA0184EC222334
:1002400071F0213009F484E88093BC009091BC00E7
:1002500097FFFCCF9091BB0091932150F0CF84E9A0
:100260008093BC0080E0089594EA24E89093BC0059
:100270008091BC0087FFFCCF809100018093BB0080
:100280002093BC008091BC0087FFFCCF8091B90017
:10029000883161F784EA8093BC008091BC0087FFBD
:1002A000FCCF809100018093BB0084E88093BC0068
:1002B0008091BC0087FFFCCF7093BB0084E88093E3
:1002C000BC008091BC0087FFFCCF6093BB0084E83A
:1002D0008093BC008091BC0087FFFCCF4093BB00A3
:1002E00084E88093BC008091BC0087FFFCCF84E948
:1002F0008093BC0080E00895FB01E20FF11DDC015A
:100300002C9130E021503109262B372BE217F307CF
:1003100010F0F90131968E2F861B24EA34E82093E1
:10032000BC009091BC0097FFFCCF9091000190938E
:10033000BB003093BC009091BC0097FFFCCF909124
:10034000B900983161F794EA9093BC009091BC0099
:1003500097FFFCCF909100019093BB0094E890939D
:10036000BC009091BC0097FFFCCF7093BB0094E859
:100370009093BC009091BC0097FFFCCF6093BB00B2
:1003800094E89093BC009091BC0097FFFCCFFA01D9
:10039000982F24E8992359F031913093BB00209392
:1003A000BC003091BC0037FFFCCF9150F3CF94E9F3
:1003B0009093BC000895CF92DF92EF92FF921F932B
:1003C000CF93DF936C017A01122FEB01212FA7014C
:1003D000BE01C6010E947C01282F30E0C20FD31F4E
:1003E000181BE20EF31E1111F1CF80E0DF91CF91C7
:1003F0001F91FF90EF90DF90CF90089508956130A6
:1004000049F028F0623041F0633049F0089581E00E
:1004100082B9089565B9089581E088B9089581E0A9
:100420008BB90895613089F028F0623081F0633033
:10043000C1F0089581E082B98FE19EE40197F1F760
:1004400000C0000082E082B916C065B90CC081E02E
:1004500085B98FE19EE40197F1F700C0000065B90E
:100460000AC081E085B98FE19EE40197F1F700C0F1
:10047000000082E085B98FE19EE40197F1F700C0AA
:1004800000000895613041F028F0623039F06330A7
:1004900039F0089512B8089515B8089518B8089558
:1004A0001BB808951092C5008FEC8093C400109281
:1004B000C00088E18093C10086E08093C200089567
:1004C0000C9452028091C00085FFFCCF6093C6005F
:1004D00008958091C00087FFFCCF8091C60090E016
:1004E00008950F931F93CF93DF9300D01F92CDB742
:1004F000DEB7CE0103960E946002CE0102960E94F2
:100500005F008FEF84B9CE0101960E94FE0161E089
:10051000CE0101960E94FF01CE0103960E9469025E
:10052000082FCE0103960E946902182F402F60E029
:1005300070E0CE0102960E9434018FE39FE10197A3
:10054000F1F700C00000412F61E070E0CE0102969B
:100550000E9434018FE39FE10197F1F700C0000092
:1005600061E0CE0101960E944202CE0102960E94F5
:10057000550080E090E00F900F900F90DF91CF91A9
:0A0580001F910F910895F894FFCF2A
:02058A00A000CF
:00000001FF
