:100000000C9440000C9468000C9468000C946800F8
:100010000C9468000C9468000C9468000C946800C0
:100020000C9468000C9468000C9468000C946800B0
:100030000C9468000C9468000C9468000C946800A0
:100040000C9468000C9468000C9468000C94680090
:100050000C9468000C9468000C9468000C94680080
:100060000C9468000C9468000C9468000C94680070
:100070000C9468000C9468000C946800C003D003D2
:1000800011241FBECFEFD8E0DEBFCDBF11E0A0E04E
:10009000B1E0E6E2F8E002C005900D92A230B107AF
:1000A000D9F721E0A2E0B1E001C01D92AB30B20768
:1000B000E1F710E0CFE3D0E004C02197FE010E94F9
:1000C0000004CE33D107C9F70E945D030C940604E7
:1000D0000C940000CF93C62F823609F447C0C0F4B9
:1000E0008534E9F160F4823079F1843409F069C033
:1000F0006091000188E091E0CF910C948D028036F0
:1001000008F45FC086E091E00E94030340E03DC038
:100110008536E9F158F4833681F1843609F051C00F
:1001200086E091E00E94030342E32FC0813CD1F1BD
:100130008F3F09F444C0803C09F043C0409305015F
:10014000CF5FC09303013DC080E08C17D1F1EFE495
:10015000F3EC3197F1F700C000008F5FF6CF6091AC
:10016000000188E091E0CF910C94D00286E091E00C
:100170000E9403034C2F6C2F10C086E091E00E9478
:1001800003036C2F6195462F08C060E006C086E02F
:1001900091E00E94030340E062E386E091E0CF91AA
:1001A0000C94100380910301882359F0909105016C
:1001B00091509093050181508093030102C01092E9
:1001C0000201CF910895089580EA80930101109271
:1001D000B90080E28093B800089520E8FC012083F4
:1001E0000C94E400982F9370891305C0880F806ADF
:1001F0008093010108958FEF089594EA24E8909385
:10020000BC008091BC0087FFFCCF809101018093EE
:10021000BB002093BC008091BC0087FFFCCF809185
:10022000B900883161F784EA8093BC008091BC00FA
:1002300087FFFCCF809101018093BB0084E880930D
:10024000BC008091BC0087FFFCCF7093BB0084E8AA
:100250008093BC008091BC0087FFFCCF6093BB0003
:1002600084E88093BC008091BC0087FFFCCF809124
:10027000BC0087FFFCCF84EA8093BC008091BC0067
:1002800087FFFCCF809101018F5F8093BB0084E8E2
:100290008093BC008091BC0087FFFCCF84E88093F2
:1002A000BC008091BC0087FFFCCF8091BB00FA01AD
:1002B000808384E98093BC0080E0089594EA34E868
:1002C0009093BC008091BC0087FFFCCF809101011E
:1002D0008093BB003093BC008091BC0087FFFCCFB3
:1002E0008091B900883161F784EA8093BC008091E5
:1002F000BC0087FFFCCF809101018093BB0084E8A4
:100300008093BC008091BC0087FFFCCF7093BB0042
:1003100084E88093BC008091BC0087FFFCCF609391
:10032000BB0084E88093BC008091BC0087FFFCCFB9
:1003300084EA8093BC008091BC0087FFFCCF809151
:1003400001018F5F8093BB0084E88093BC008091A3
:10035000BC0087FFFCCFFA0184EC222371F021302E
:1003600009F484E88093BC009091BC0097FFFCCF17
:100370009091BB0091932150F0CF84E98093BC0011
:1003800080E0089594EA24E89093BC008091BC003A
:1003900087FFFCCF809101018093BB002093BC00BC
:1003A0008091BC0087FFFCCF8091B900883161F754
:1003B00084EA8093BC008091BC0087FFFCCF8091D1
:1003C00001018093BB0084E88093BC008091BC0055
:1003D00087FFFCCF7093BB0084E88093BC008091C2
:1003E000BC0087FFFCCF6093BB0084E88093BC0017
:1003F0008091BC0087FFFCCF4093BB0084E88093D2
:10040000BC008091BC0087FFFCCF84E98093BC00D6
:1004100080E00895FB01E20FF11DDC012C9130E03A
:1004200021503109262B372BE217F30710F0F90181
:1004300031968E2F861B24EA34E82093BC009091DD
:10044000BC0097FFFCCF909101019093BB003093CB
:10045000BC009091BC0097FFFCCF9091B9009831FF
:1004600061F794EA9093BC009091BC0097FFFCCF99
:10047000909101019093BB0094E89093BC009091FF
:10048000BC0097FFFCCF7093BB0094E89093BC0036
:100490009091BC0097FFFCCF6093BB0094E89093D1
:1004A000BC009091BC0097FFFCCFFA01982F24E884
:1004B000992359F031913093BB002093BC003091C7
:1004C000BC0037FFFCCF9150F3CF94E99093BC0070
:1004D0000895CF92DF92EF92FF921F93CF93DF9315
:1004E0006C017A01122FEB01212FA701BE01C60179
:1004F0000E940A02282F30E0C20FD31F181BE20E01
:10050000F31E1111F1CF80E0DF91CF911F91FF9089
:10051000EF90DF90CF9008950895613049F028F072
:10052000623041F0633049F0089581E082B9089566
:1005300065B9089581E088B9089581E08BB908957F
:10054000613089F028F0623081F06330C1F00895A5
:1005500081E082B98FE19EE40197F1F700C00000CD
:1005600082E082B916C065B90CC081E085B98FE11F
:100570009EE40197F1F700C0000065B90AC081E070
:1005800085B98FE19EE40197F1F700C0000082E099
:1005900085B98FE19EE40197F1F700C0000008954E
:1005A000613041F028F0623039F0633039F008955D
:1005B00012B8089515B8089518B808951BB808958D
:1005C0000895FC012FEF629FC00111242CE93FEF39
:1005D000B9010E94D803615060835FEF459FC0015D
:1005E0001124B9010E94D8036150618308950895D0
:1005F0002FEF629FC00111246CE97FEF0E94D803A6
:100600008FEF860F0895109285001092840081EF7D
:100610008093800081E08093810010928200089591
:100620000F931F93CF93DF93EC01062F142F0E949B
:1006300003032FEF029FC0011124ECE9FFEFBF017C
:100640000E94D8032FEF260F28833FEF139FC0018E
:100650001124BF010E94D80361506983622F70E0AA
:100660007093890060938800898190E090938B005B
:1006700080938A00DF91CF911F910F91089510927E
:10068000C5008FEC8093C4001092C00088E1809375
:10069000C10086E08093C20008950C943F038091CE
:1006A000C00085FFFCCF6093C60008958091C00014
:1006B00087FFFCCF8091C6000895FF920F931F9390
:1006C000CF93DF9300D0CDB7DEB711B88FEF84B9E9
:1006D0008AB917B8AE014E5F5F4F60E070E08AE004
:1006E00091E00E94FD000A8110E0102F0027AE016A
:1006F0004F5F5F4F61E070E08AE091E00E94FD0093
:100700008981082B92E0F92E6F2D70E06017710738
:1007100068F5AE014E5F5F4F8AE091E00E94FD00F8
:100720008FE39FE10197F1F700C0000061E06F0DDA
:1007300070E0AE014F5F5F4F8AE091E00E94FD00E4
:10074000F394F3948FE39FE10197F1F700C0000069
:100750008A81813011F480930201909102019923E2
:1007600099F24F2D69810E946A00CECF80E090E01F
:100770000F900F90DF91CF911F910F91FF900895EF
:100780008AE091E00E94ED0089E091E00E944D0333
:1007900088E091E00E948C0286E091E00C94E002F7
:1007A00086E091E00E94F7028AE091E00C94E30079
:1007B00097FB072E16F4009407D077FD09D00E940E
:1007C000EC0307FC05D03EF4909581959F4F08956A
:1007D000709561957F4F0895AA1BBB1B51E107C01F
:1007E000AA1FBB1FA617B70710F0A61BB70B881FC1
:1007F000991F5A95A9F780959095BC01CD01089550
:10080000EE0FFF1F0590F491E02D099410E0CFE367
:10081000D0E004C0FE010E9400042196C034D1073C
:06082000C9F7F894FFCFB8
:0208260001A02F
:00000001FF
