:100000000C9440000C9468000C9468000C946800F8
:100010000C9468000C9468000C9468000C946800C0
:100020000C9468000C9468000C9468000C946800B0
:100030000C9468000C9468000C9468000C946800A0
:100040000C9468000C9468000C9468000C94680090
:100050000C9468000C9468000C9468000C94680080
:100060000C9468000C9468000C9468000C94680070
:100070000C9468000C9468000C9468001E04320410
:1000800011241FBECFEFD8E0DEBFCDBF11E0A0E04E
:10009000B1E0E2EFF8E002C005900D92AC34B10798
:1000A000D9F721E0ACE4B1E001C01D92A03AB2075B
:1000B000E1F710E0CFE3D0E004C02197FE010E94F9
:1000C0006604CE33D107C9F70E9497030C946C04E1
:1000D0000C940000823680F4803608F041C08434ED
:1000E00079F128F4823009F18930B1F1089585342D
:1000F00059F1883469F108958536D9F130F48336A1
:1001000091F190F140E062E330C0813CA1F18F3F7A
:1001100009F440C0803C09F03FC080914C018093BD
:1001200050016F5F60934F01089580E08617A1F141
:10013000EFE4F3EC3197F1F700C000008F5FF6CFEA
:100140008DE991E00C9457018DE991E00C946E01DA
:1001500081E591E00C944A0181E591E00C944F0116
:1001600040E060E002C06195462F8BE991E00C947D
:100170004A0342E3F6CF80914F01882369F0209132
:10018000500130E030934D0120934C018150809319
:100190004F01089510924E0108958DE991E00E945B
:1001A0005A012FEF84E39CE0215080409040E1F71A
:1001B00000C000008DE991E00E946E012FEF84E302
:1001C0009CE0215080409040E1F700C000008DE9A4
:1001D00091E00E945A012FEF84E39CE0215080407F
:1001E0009040E1F700C000008DE991E00E946E01AF
:1001F0002FEF84E39CE0215080409040E1F700C065
:1002000000008DE991E00E9457012FEF84E39CE00C
:10021000215080409040E1F700C000008DE991E05E
:100220000E946E012FEF84E39CE0215080409040BB
:10023000E1F700C000008DE991E00E9457012FEF27
:1002400084E39CE0215080409040E1F700C0000032
:100250008DE991E00E946E012FEF84E39CE0215034
:1002600080409040E1F700C000000895089510928A
:10027000B20082E48093B00082E08093B1000895E0
:100280002AE4E1E0F1E0DC0101900D922A95E1F72A
:100290000C9437011092B300089580E008951092F5
:1002A000B3001092B2001092B1000895089581E059
:1002B00085B9089582E085B9089581E085B98FE117
:1002C0009EE40197F1F700C0000082E085B98FE15C
:1002D0009EE40197F1F700C00000089515B8089555
:1002E000089580EA809300011092B90080E2809323
:1002F000B800089520E8FC0120830C947101982F28
:100300009370891305C0880F806A80930001089557
:100310008FEF089594EA24E89093BC008091BC008C
:1003200087FFFCCF809100018093BB002093BC002D
:100330008091BC0087FFFCCF8091B900883161F7C4
:1003400084EA8093BC008091BC0087FFFCCF809141
:1003500000018093BB0084E88093BC008091BC00C6
:1003600087FFFCCF7093BB0084E88093BC00809132
:10037000BC0087FFFCCF6093BB0084E88093BC0087
:100380008091BC0087FFFCCF8091BC0087FFFCCF31
:1003900084EA8093BC008091BC0087FFFCCF8091F1
:1003A00000018F5F8093BB0084E88093BC00809144
:1003B000BC0087FFFCCF84E88093BC008091BC0028
:1003C00087FFFCCF8091BB00FA01808384E9809392
:1003D000BC0080E0089594EA34E89093BC008091DA
:1003E000BC0087FFFCCF809100018093BB0030935D
:1003F000BC008091BC0087FFFCCF8091B9008831A0
:1004000061F784EA8093BC008091BC0087FFFCCF39
:10041000809100018093BB0084E88093BC008091B0
:10042000BC0087FFFCCF7093BB0084E88093BC00C6
:100430008091BC0087FFFCCF6093BB0084E8809371
:10044000BC008091BC0087FFFCCF84EA8093BC0095
:100450008091BC0087FFFCCF809100018F5F80936B
:10046000BB0084E88093BC008091BC0087FFFCCF78
:10047000FA0184EC222371F0213009F484E880939E
:10048000BC009091BC0097FFFCCF9091BB00919372
:100490002150F0CF84E98093BC0080E0089594EA75
:1004A00024E89093BC008091BC0087FFFCCF809132
:1004B00000018093BB002093BC008091BC0087FFAB
:1004C000FCCF8091B900883161F784EA8093BC0049
:1004D0008091BC0087FFFCCF809100018093BB001E
:1004E00084E88093BC008091BC0087FFFCCF7093B0
:1004F000BB0084E88093BC008091BC0087FFFCCFE8
:100500006093BB0084E88093BC008091BC0087FFAF
:10051000FCCF4093BB0084E88093BC008091BC007A
:1005200087FFFCCF84E98093BC0080E00895260F0C
:10053000372F311DFC0180818150990B862B972B21
:100540002817390718F09C012F5F3F4F822F861B19
:1005500024EA34E82093BC009091BC0097FFFCCFC4
:10056000909100019093BB003093BC009091BC002F
:1005700097FFFCCF9091B900983161F794EA90937E
:10058000BC009091BC0097FFFCCF9091000190932C
:10059000BB0094E89093BC009091BC0097FFFCCF07
:1005A0007093BB0094E89093BC009091BC0097FFBF
:1005B000FCCF6093BB0094E89093BC009091BC008A
:1005C00097FFFCCFFA01982F24E8992359F0319135
:1005D0003093BB002093BC003091BC0037FFFCCFB0
:1005E0009150F3CF94E99093BC000895CF92DF929D
:1005F000EF92FF920F931F93CF936C017B018A01BF
:10060000C22F2C2FA801B701C6010E949702282FE4
:1006100030E0E20EF31EC81B020F131FC111F1CF11
:1006200080E0CF911F910F91FF90EF90DF90CF90DE
:1006300008950895CF93FC01CFEF6C9FC001112462
:100640002CE93FEFB9010E943E04615060834C9F4A
:10065000C0011124B9010E943E0461506183CF9111
:10066000089508952FEF629FC00111246CE97FEF78
:100670000E943E048FEF860F08951092850010921D
:10068000840081EF8093800081E08093810010924C
:10069000820008950F931F93CF93DF93EC01062FF1
:1006A000142F0E943D033FEF039FC0011124ECE98A
:1006B000FFEFBF010E943E042FEF260F2883139FF8
:1006C000C0011124BF010E943E046150698330E0E3
:1006D000309389002093880070E070938B006093C2
:1006E0008A00DF91CF911F910F9108951092C5005C
:1006F0008FEC8093C400E1ECF0E08081886180831E
:10070000E2ECF0E080818660808308950C947603AB
:100710008091C00085FD03C06093C600F9CF0895A5
:100720008091C00087FFFCCF8091C60008950F9391
:100730001F93CF93DF9300D0CDB7DEB711B88FEF03
:1007400084B98AB917B860914C0170914D01AE011E
:100750004E5F5F4F8FE991E00E948A010A8110E0AD
:10076000102F002760914C0170914D016F5F7F4FFA
:1007700070934D0160934C01AE014F5F5F4F8FE965
:1007800091E00E948A018981082B80914C0190910F
:100790004D01019690934D0180934C010E94CD0034
:1007A00060914C0170914D0160177107F0F5AE0139
:1007B0004E5F5F4F8FE991E00E948A0180914C016A
:1007C00090914D01019690934D0180934C018FE3E0
:1007D0009FE10197F1F700C0000060914C0170911A
:1007E0004D01AE014F5F5F4F8FE991E00E948A019A
:1007F00080914C0190914D01019690934D01809311
:100800004C018FE39FE10197F1F700C000008A815E
:10081000813011F480934E0190914E01992309F497
:10082000BFCF69810E946A00BBCF90E080E00F904B
:100830000F90DF91CF911F910F9108958FE991E073
:100840000E947A018EE991E00E9486038DE991E091
:100850000E9456018BE991E00E94190381E591E025
:100860000C94400181E591E00E9436018BE991E012
:100870000E9431038FE991E00C94700197FB072EE1
:1008800016F4009407D077FD09D00E94520407FCAB
:1008900005D03EF4909581959F4F08957095619590
:1008A0007F4F0895AA1BBB1B51E107C0AA1FBB1FA6
:1008B000A617B70710F0A61BB70B881F991F5A95EC
:1008C000A9F780959095BC01CD010895EE0FFF1F0B
:1008D0000590F491E02D099410E0CFE3D0E004C03E
:1008E000FE010E9466042196C034D107C9F7F8942E
:0208F000FFCF38
:1008F200A06E0074007B0082008A0092009B00A41C
:1009020000AE00B800C300CF00DC00E900F600052D
:100912000115012501370149015D01710187019F1F
:1009220001B801D201ED010B022A024B026E0293C1
:0C09320002BA02E3020F033E0370030050
:00000001FF
