:100000000C9440000C9468000C9468000C946800F8
:100010000C9468000C9468000C9468000C946800C0
:100020000C9468000C9468000C9468000C946800B0
:100030000C9468000C9468000C9468000C946800A0
:100040000C9468000C9468000C9468000C94680090
:100050000C9468000C9468000C9468000C94680080
:100060000C9468000C9468000C9468000C94680070
:100070000C9468000C9468000C946800E503F50388
:1000800011241FBECFEFD8E0DEBFCDBF11E0A0E04E
:10009000B1E0E0E7F8E002C005900D92A230B107B0
:1000A000D9F721E0A2E0B1E001C01D92AB30B20768
:1000B000E1F710E0CFE3D0E004C02197FE010E94F9
:1000C0002504CE33D107C9F70E946B030C942B048F
:1000D0000C940000CF93C62F823609F448C0C0F4B8
:1000E0008534F1F160F4823079F1843409F076C01E
:1000F0006091000188E091E0CF910C949A028036E3
:1001000008F46CC086E091E00E94100340E03EC01D
:100110008536F1F158F4833689F1843609F05EC0F2
:1001200086E091E00E94100342E330C0813CD9F1A7
:100130008F3F09F445C0803C09F050C04093050151
:10014000CF5FC09303014AC080E08C1709F446C01A
:10015000EFE4F3EC3197F1F700C000008F5FF5CFCB
:100160006091000188E091E0CF910C94DD0286E07F
:1001700091E00E9410034C2F6C2F10C086E091E09C
:100180000E9410036C2F6195462F08C060E006C0E6
:1001900086E091E00E94100340E062E386E091E097
:1001A000CF910C941D03809103018823B9F09091A5
:1001B00005019150909305018150809303010EC079
:1001C0001092020140E060E086E091E00E941D0391
:1001D000109205011092040110920301CF9108952D
:1001E000089580EA809301011092B90080E2809323
:1001F000B800089520E8FC0120830C94F100982FAA
:100200009370891305C0880F806A80930101089557
:100210008FEF089594EA24E89093BC008091BC008D
:1002200087FFFCCF809101018093BB002093BC002D
:100230008091BC0087FFFCCF8091B900883161F7C5
:1002400084EA8093BC008091BC0087FFFCCF809142
:1002500001018093BB0084E88093BC008091BC00C6
:1002600087FFFCCF7093BB0084E88093BC00809133
:10027000BC0087FFFCCF6093BB0084E88093BC0088
:100280008091BC0087FFFCCF8091BC0087FFFCCF32
:1002900084EA8093BC008091BC0087FFFCCF8091F2
:1002A00001018F5F8093BB0084E88093BC00809144
:1002B000BC0087FFFCCF84E88093BC008091BC0029
:1002C00087FFFCCF8091BB00FA01808384E9809393
:1002D000BC0080E0089594EA34E89093BC008091DB
:1002E000BC0087FFFCCF809101018093BB0030935D
:1002F000BC008091BC0087FFFCCF8091B9008831A1
:1003000061F784EA8093BC008091BC0087FFFCCF3A
:10031000809101018093BB0084E88093BC008091B0
:10032000BC0087FFFCCF7093BB0084E88093BC00C7
:100330008091BC0087FFFCCF6093BB0084E8809372
:10034000BC008091BC0087FFFCCF84EA8093BC0096
:100350008091BC0087FFFCCF809101018F5F80936B
:10036000BB0084E88093BC008091BC0087FFFCCF79
:10037000FA0184EC222371F0213009F484E880939F
:10038000BC009091BC0097FFFCCF9091BB00919373
:100390002150F0CF84E98093BC0080E0089594EA76
:1003A00024E89093BC008091BC0087FFFCCF809133
:1003B00001018093BB002093BC008091BC0087FFAB
:1003C000FCCF8091B900883161F784EA8093BC004A
:1003D0008091BC0087FFFCCF809101018093BB001E
:1003E00084E88093BC008091BC0087FFFCCF7093B1
:1003F000BB0084E88093BC008091BC0087FFFCCFE9
:100400006093BB0084E88093BC008091BC0087FFB0
:10041000FCCF4093BB0084E88093BC008091BC007B
:1004200087FFFCCF84E98093BC0080E00895FB0146
:10043000E20FF11DDC012C9130E021503109262B17
:10044000372BE217F30710F0F90131968E2F861B38
:1004500024EA34E82093BC009091BC0097FFFCCFC5
:10046000909101019093BB003093BC009091BC002F
:1004700097FFFCCF9091B900983161F794EA90937F
:10048000BC009091BC0097FFFCCF9091010190932C
:10049000BB0094E89093BC009091BC0097FFFCCF08
:1004A0007093BB0094E89093BC009091BC0097FFC0
:1004B000FCCF6093BB0094E89093BC009091BC008B
:1004C00097FFFCCFFA01982F24E8992359F0319136
:1004D0003093BB002093BC003091BC0037FFFCCFB1
:1004E0009150F3CF94E99093BC000895CF92DF929E
:1004F000EF92FF921F93CF93DF936C017A01122F3B
:10050000EB01212FA701BE01C6010E941702282F6F
:1005100030E0C20FD31F181BE20EF31E1111F1CFF2
:1005200080E0DF91CF911F91FF90EF90DF90CF900F
:1005300008950895613049F028F0623041F0633049
:1005400049F0089581E082B9089565B9089581E080
:1005500088B9089581E08BB90895613089F028F059
:10056000623081F06330C1F0089581E082B98FE19B
:100570009EE40197F1F700C0000082E082B916C046
:1005800065B90CC081E085B98FE19EE40197F1F770
:1005900000C0000065B90AC081E085B98FE19EE422
:1005A0000197F1F700C0000082E085B98FE19EE479
:1005B0000197F1F700C000000895613041F028F084
:1005C000623039F0633039F0089512B8089515B8E3
:1005D000089518B808951BB808950895FC012FEFE9
:1005E000629FC00111242CE93FEFB9010E94FD0375
:1005F000615060835FEF459FC0011124B9010E94E3
:10060000FD0361506183089508952FEF629FC0013B
:1006100011246CE97FEF0E94FD038FEF860F089590
:10062000109285001092840081EF8093800081E019
:10063000809381001092820008950F931F93CF93AF
:10064000DF93EC01062F142F0E9410032FEF029F5F
:10065000C0011124ECE9FFEFBF010E94FD032FEF61
:10066000260F28833FEF139FC0011124BF010E9472
:10067000FD0361506983622F70E07093890060937D
:100680008800898190E090938B0080938A00DF91AD
:10069000CF911F910F9108951092C5008FEC809318
:1006A000C4001092C00088E18093C10086E080936E
:1006B000C20008950C944C038091C00085FFFCCFCC
:1006C0006093C60008958091C00087FFFCCF8091A1
:1006D000C60090E00895FF920F931F93CF93DF938E
:1006E00000D000D0CDB7DEB78FEF84B9AE014C5F3C
:1006F0005F4F60E070E08AE091E00E940A010C81A7
:1007000010E0102F0027AE014D5F5F4F61E070E0F9
:100710008AE091E00E940A018B81082B6091000120
:1007200088E091E00E949A022FEF89E698E121503B
:1007300080409040E1F700C000006091000188E037
:1007400091E00E94DD0292E0F92E6F2D70E06017BB
:10075000710778F5AE014E5F5F4F8AE091E00E942D
:100760000A018A838FE39FE10197F1F700C000003F
:1007700061E06F0D70E0AE014F5F5F4F8AE091E086
:100780000E940A018983F394F3948FE39FE1019718
:10079000F1F700C000008A81813011F480930201DA
:1007A00090910201992389F24F2D69810E946A007C
:1007B000CCCF80E090E00F900F900F900F90DF91E2
:1007C000CF911F910F91FF9008958AE091E00E94D0
:1007D000FA0089E091E00E945A0388E091E00E94CB
:1007E000990286E091E00C94ED0286E091E00E948F
:1007F00004038AE091E00C94F00097FB072E16F4B6
:10080000009407D077FD09D00E94110407FC05D0A1
:100810003EF4909581959F4F0895709561957F4F17
:100820000895AA1BBB1B51E107C0AA1FBB1FA61737
:10083000B70710F0A61BB70B881F991F5A95A9F789
:1008400080959095BC01CD010895EE0FFF1F059096
:10085000F491E02D099410E0CFE3D0E004C0FE0154
:100860000E9425042196C034D107C9F7F894FFCF20
:0208700001A0E5
:00000001FF
