:100000000C9440000C9468000C9468000C946800F8
:100010000C9468000C9468000C9468000C946800C0
:100020000C9468000C9468000C9468000C946800B0
:100030000C9468000C9468000C9468000C946800A0
:100040000C9468000C9468000C9468000C94680090
:100050000C9468000C9468000C9468000C94680080
:100060000C9468000C9468000C9468000C94680070
:100070000C9468000C9468000C94680037044B04DE
:1000800011241FBECFEFD8E0DEBFCDBF11E0A0E04E
:10009000B1E0E4E2F9E002C005900D92AC34B107A2
:1000A000D9F721E0ACE4B1E001C01D92A03AB2075B
:1000B000E1F710E0CFE3D0E004C02197FE010E94F9
:1000C0007F04CE33D107C9F70E949E030C948504A8
:1000D0000C940000823680F4803608F03FC08434EF
:1000E00069F128F48230F9F08930A1F1089585345E
:1000F00049F1883459F108958536A9F120F4833601
:1001000079F178F133C0813CB9F18F3F09F443C0F4
:10011000803C09F042C080914C01809350016F5F98
:1001200060934F01089580E08617B9F1EFE4F3EC96
:100130003197F1F700C000008F5FF6CF8DE991E0B5
:100140000C945C018DE991E00C94730181E591E0E0
:100150000C944F0181E591E00C94540140E004C0FF
:100160006195462F05C042E360E002C040E062E3D3
:100170008BE991E00C944E0380914F01882369F044
:100180002091500130E030934D0120934C0181507B
:1001900080934F01089510924E0108958DE991E0EA
:1001A0000E945F012FEF84E39CE02150804090404B
:1001B000E1F700C000008DE991E00E9473012FEF8C
:1001C00084E39CE0215080409040E1F700C00000B3
:1001D0008DE991E00E945F012FEF84E39CE02150C4
:1001E00080409040E1F700C000008DE991E00E945E
:1001F00073012FEF84E39CE0215080409040E1F7B1
:1002000000C000008DE991E00E945C012FEF84E3C3
:100210009CE0215080409040E1F700C000008DE953
:1002200091E00E9473012FEF84E39CE02150804015
:100230009040E1F700C000008DE991E00E945C0170
:100240002FEF84E39CE0215080409040E1F700C014
:1002500000008DE991E00E9473012FEF84E39CE0A0
:10026000215080409040E1F700C0000008950895BB
:100270001092B200E0EBF0E0808182648083E1EBD9
:10028000F0E080818260808308952AE4E1E0F1E07B
:10029000DC0101900D922A95E1F70C94380110923F
:1002A000B300089580E008951092B3001092B20058
:1002B0001092B1000895089581E085B9089582E013
:1002C00085B9089581E085B98FE19EE40197F1F742
:1002D00000C0000082E085B98FE19EE40197F1F74C
:1002E00000C00000089515B80895089580EA80932D
:1002F00000011092B90080E28093B800089520E8D0
:10030000FC0120830C947601982F9370891305C00B
:10031000880F806A8093000108958FEF089594EA12
:1003200024E89093BC008091BC0087FFFCCF8091B3
:1003300000018093BB002093BC008091BC0087FF2C
:10034000FCCF8091B900883161F784EA8093BC00CA
:100350008091BC0087FFFCCF809100018093BB009F
:1003600084E88093BC008091BC0087FFFCCF709331
:10037000BB0084E88093BC008091BC0087FFFCCF69
:100380006093BB0084E88093BC008091BC0087FF31
:10039000FCCF8091BC0087FFFCCF84EA8093BC0037
:1003A0008091BC0087FFFCCF809100018F5F80931C
:1003B000BB0084E88093BC008091BC0087FFFCCF29
:1003C00084E88093BC008091BC0087FFFCCF8091C3
:1003D000BB00FA01808384E98093BC0080E008952B
:1003E00094EA34E89093BC008091BC0087FFFCCF76
:1003F000809100018093BB003093BC008091BC00D1
:1004000087FFFCCF8091B900883161F784EA80933F
:10041000BC008091BC0087FFFCCF809100018093DD
:10042000BB0084E88093BC008091BC0087FFFCCFB8
:100430007093BB0084E88093BC008091BC0087FF70
:10044000FCCF6093BB0084E88093BC008091BC002B
:1004500087FFFCCF84EA8093BC008091BC0087FFBB
:10046000FCCF809100018F5F8093BB0084E8809374
:10047000BC008091BC0087FFFCCFFA0184EC2223F2
:1004800071F0213009F484E88093BC009091BC00A5
:1004900097FFFCCF9091BB0091932150F0CF84E95E
:1004A0008093BC0080E0089594EA24E89093BC0017
:1004B0008091BC0087FFFCCF809100018093BB003E
:1004C0002093BC008091BC0087FFFCCF8091B900D5
:1004D000883161F784EA8093BC008091BC0087FF7B
:1004E000FCCF809100018093BB0084E88093BC0026
:1004F0008091BC0087FFFCCF7093BB0084E88093A1
:10050000BC008091BC0087FFFCCF6093BB0084E8F7
:100510008093BC008091BC0087FFFCCF4093BB0060
:1005200084E88093BC008091BC0087FFFCCF84E905
:100530008093BC0080E00895FB01E20FF11DDC0117
:100540002C9130E021503109262B372BE217F3078D
:1005500010F0F90131968E2F861B24EA34E820939F
:10056000BC009091BC0097FFFCCF9091000190934C
:10057000BB003093BC009091BC0097FFFCCF9091E2
:10058000B900983161F794EA9093BC009091BC0057
:1005900097FFFCCF909100019093BB0094E890935B
:1005A000BC009091BC0097FFFCCF7093BB0094E817
:1005B0009093BC009091BC0097FFFCCF6093BB0070
:1005C00094E89093BC009091BC0097FFFCCFFA0197
:1005D000982F24E8992359F031913093BB00209350
:1005E000BC003091BC0037FFFCCF9150F3CF94E9B1
:1005F0009093BC000895CF92DF92EF92FF921F93E9
:10060000CF93DF936C017A01122FEB01212FA70109
:10061000BE01C6010E949C02282F30E0C20FD31FEA
:10062000181BE20EF31E1111F1CF80E0DF91CF9184
:100630001F91FF90EF90DF90CF9008950895FC01F7
:100640002FEF629FC00111242CE93FEFB9010E94F6
:100650005704615060835FEF459FC0011124B901C9
:100660000E94570461506183089508952FEF629F9F
:10067000C00111246CE97FEF0E9457048FEF860FB1
:100680000895109285001092840081EF809380007D
:1006900081E0809381001092820008950F931F9350
:1006A000CF93DF93EC01062F142F0E9441032FEF0D
:1006B000029FC0011124ECE9FFEFBF010E94570423
:1006C0002FEF260F28833FEF139FC0011124BF0196
:1006D0000E94570461506983622F70E07093890013
:1006E00060938800898190E090938B0080938A00CA
:1006F000DF91CF911F910F9108951092C5008FEC5B
:100700008093C400E1ECF0E0808188618083E2ECBA
:10071000F0E080818660808308950C947D03809151
:10072000C00085FD03C06093C600F9CF0895809195
:10073000C00087FFFCCF8091C60008950F931F93E0
:10074000CF93DF9300D0CDB7DEB711B88FEF84B968
:100750008AB917B81DE2612F81E591E00E944F012F
:100760002FEF80E792E0215080409040E1F700C0F9
:1007700000001F5F113579F760914C0170914D01B8
:10078000AE014E5F5F4F8FE991E00E948F010A81B9
:1007900010E0102F002760914C0170914D016F5FA8
:1007A0007F4F70934D0160934C01AE014F5F5F4FDF
:1007B0008FE991E00E948F018981082B80914C0183
:1007C00090914D01019690934D0180934C010E94B0
:1007D000CE0060914C0170914D0160177107F0F5EA
:1007E000AE014E5F5F4F8FE991E00E948F018091D3
:1007F0004C0190914D01019690934D0180934C01D5
:100800008FE39FE10197F1F700C0000060914C0178
:1008100070914D01AE014F5F5F4F8FE991E00E94F3
:100820008F0180914C0190914D01019690934D0163
:1008300080934C018FE39FE10197F1F700C0000026
:100840008A81813011F480934E0190914E01992359
:1008500009F4BFCF69810E946A00BBCF80E090E0BD
:100860000F900F90DF91CF911F910F9108958FE915
:1008700091E00E947F018EE991E00E948D038DE955
:1008800091E00E945B018BE991E00E941E0381E5EB
:1008900091E00C94450181E591E00E9437018BE9DC
:1008A00091E00E9435038FE991E00C94750197FB6C
:1008B000072E16F4009407D077FD09D00E946B0430
:1008C00007FC05D03EF4909581959F4F0895709553
:1008D00061957F4F0895AA1BBB1B51E107C0AA1F5A
:1008E000BB1FA617B70710F0A61BB70B881F991FD1
:1008F0005A95A9F780959095BC01CD010895EE0F0A
:10090000FF1F0590F491E02D099410E0CFE3D0E0B3
:1009100004C0FE010E947F042196C034D107C9F7AC
:04092000F894FFCF79
:10092400A06E0074007B0082008A0092009B00A4E9
:1009340000AE00B800C300CF00DC00E900F60005FB
:100944000115012501370149015D01710187019FED
:1009540001B801D201ED010B022A024B026E02938F
:0C09640002BA02E3020F033E037003001E
:00000001FF
