:100000000C9440000C9468000C9468000C946800F8
:100010000C9468000C9468000C9468000C946800C0
:100020000C9468000C9468000C9468000C946800B0
:100030000C9468000C9468000C9468000C946800A0
:100040000C9468000C9468000C9468000C94680090
:100050000C9468000C9468000C9468000C94680080
:100060000C9468000C9468000C9468000C94680070
:100070000C9468000C9468000C9468007E038E0356
:1000800011241FBECFEFD8E0DEBFCDBF11E0A0E04E
:10009000B1E0E2EAF7E002C005900D92A230B107AC
:1000A000D9F721E0A2E0B1E001C01D92AE30B20765
:1000B000E1F710E0CFE3D0E004C02197FE010E94F9
:1000C000BE03CE33D107C9F70E9467030C94C40363
:1000D0000C940000CF93C62F823609F447C090F4E9
:1000E0008534E9F130F4823041F1843489F1CF91E3
:1000F00008958036E0F389E091E00E940E0340E02D
:1001000060E03AC0853609F444C050F48336C9F142
:10011000843669F789E091E00E940E0342E3F0CF54
:10012000813CF1F18F3F09F449C0803C01F74093D5
:100130000801CF5FC0930601DACF80E08C17B9F2D7
:10014000EFE4F3EC3197F1F700C000008F5FF6CFDA
:10015000609100018BE091E0CF910C949702609147
:1001600000018BE091E0CF910C94DA0289E091E0FC
:100170000E940E034C2F6C2F89E091E0CF910C94DC
:100180001B0389E091E00E940E036C2F6195462FBE
:10019000F3CF89E091E00E940E0340E062E3ECCFF0
:1001A00080910601882309F4A2CF90910801915013
:1001B0009093080181508093060199CF1092050118
:1001C00040E060E089E091E00E941B03109208018A
:1001D00010920701109206018ACF089580EA809359
:1001E00001011092B90080E28093B800089520E8E0
:1001F000FC0120830C94EE00982F9370891305C0A6
:10020000880F806A8093010108958FEF089594EA22
:1002100024E89093BC008091BC0087FFFCCF8091C4
:1002200001018093BB002093BC008091BC0087FF3C
:10023000FCCF8091B900883161F784EA8093BC00DB
:100240008091BC0087FFFCCF809101018093BB00AF
:1002500084E88093BC008091BC0087FFFCCF709342
:10026000BB0084E88093BC008091BC0087FFFCCF7A
:100270006093BB0084E88093BC008091BC0087FF42
:10028000FCCF8091BC0087FFFCCF84EA8093BC0048
:100290008091BC0087FFFCCF809101018F5F80932C
:1002A000BB0084E88093BC008091BC0087FFFCCF3A
:1002B00084E88093BC008091BC0087FFFCCF8091D4
:1002C000BB00FA01808384E98093BC0080E008953C
:1002D00094EA34E89093BC008091BC0087FFFCCF87
:1002E000809101018093BB003093BC008091BC00E1
:1002F00087FFFCCF8091B900883161F784EA809351
:10030000BC008091BC0087FFFCCF809101018093ED
:10031000BB0084E88093BC008091BC0087FFFCCFC9
:100320007093BB0084E88093BC008091BC0087FF81
:10033000FCCF6093BB0084E88093BC008091BC003C
:1003400087FFFCCF84EA8093BC008091BC0087FFCC
:10035000FCCF809101018F5F8093BB0084E8809384
:10036000BC008091BC0087FFFCCFFA0184EC222303
:1003700071F0213009F484E88093BC009091BC00B6
:1003800097FFFCCF9091BB0091932150F0CF84E96F
:100390008093BC0080E0089594EA24E89093BC0028
:1003A0008091BC0087FFFCCF809101018093BB004E
:1003B0002093BC008091BC0087FFFCCF8091B900E6
:1003C000883161F784EA8093BC008091BC0087FF8C
:1003D000FCCF809101018093BB0084E88093BC0036
:1003E0008091BC0087FFFCCF7093BB0084E88093B2
:1003F000BC008091BC0087FFFCCF6093BB0084E809
:100400008093BC008091BC0087FFFCCF4093BB0071
:1004100084E88093BC008091BC0087FFFCCF84E916
:100420008093BC0080E00895260F372F311DFC011A
:1004300080818150990B862B972B2817390718F04C
:100440009C012F5F3F4F822F861B24EA34E82093C4
:10045000BC009091BC0097FFFCCF9091010190935C
:10046000BB003093BC009091BC0097FFFCCF9091F3
:10047000B900983161F794EA9093BC009091BC0068
:1004800097FFFCCF909101019093BB0094E890936B
:10049000BC009091BC0097FFFCCF7093BB0094E828
:1004A0009093BC009091BC0097FFFCCF6093BB0081
:1004B00094E89093BC009091BC0097FFFCCFFA01A8
:1004C000982F24E8992359F031913093BB00209361
:1004D000BC003091BC0037FFFCCF9150F3CF94E9C2
:1004E0009093BC000895CF92DF92EF92FF920F930A
:1004F0001F93CF936C017B018A01C22F2C2FA8017F
:10050000B701C6010E941402282F30E0E20EF31E4C
:10051000C81B020F131FC111F1CF80E0CF911F91B3
:100520000F91FF90EF90DF90CF9008950895613084
:1005300049F028F0623041F0633049F0089581E0DD
:1005400082B9089565B9089581E088B9089581E078
:100550008BB908956130B9F028F06230F1F0633062
:1005600031F1089581E082B98FE19EE40197F1F7BE
:1005700000C0000082E082B98FE19EE40197F1F7AC
:1005800000C00000089565B98FE19EE40197F1F77E
:1005900000C0000082E085B9EFCF81E085B98FE12E
:1005A0009EE40197F1F700C0000065B9E5CF81E056
:1005B00085B9EACF613041F028F0623039F063301C
:1005C00039F0089512B8089515B8089518B8089527
:1005D0001BB808950895CF93FC01CFEF6C9FC00125
:1005E00011242CE93FEFB9010E949603615060830A
:1005F0004C9FC0011124B9010E9496036150618390
:10060000CF91089508952FEF629FC00111246CE9E6
:100610007FEF0E9496038FEF860F0895109285005A
:100620001092840081EF8093800081E080938100AC
:100630001092820008950F931F93CF93DF93EC01E4
:10064000062F142F0E940E033FEF039FC0011124B9
:10065000ECE9FFEFBF010E9496032FEF260F2883DE
:10066000139FC0011124BF010E949603615069834A
:1006700030E0309389002093880070E070938B0005
:1006800060938A00DF91CF911F910F91089510928E
:10069000C5008FEC8093C400E1ECF0E080818861BC
:1006A0008083E2ECF0E080818660808308950C9482
:1006B00047038091C00085FFFCCF6093C60008957A
:1006C0008091C00087FFFCCF8091C6000895C1E0F3
:1006D000D0E0609102017091030144E051E08DE0AF
:1006E00091E00E940701609104018CE091E00E947A
:1006F0005903D0930301C0930201EBCF8DE091E049
:100700000E94F7008CE091E00E9457038BE091E09B
:100710000E94960289E091E00C94EA0289E091E05F
:100720000E9402038DE091E00C94ED0097FB072EF0
:1007300016F4009407D077FD09D00E94AA0307FCA5
:1007400005D03EF4909581959F4F089570956195E1
:100750007F4F0895AA1BBB1B51E107C0AA1FBB1FF7
:10076000A617B70710F0A61BB70B881F991F5A953D
:10077000A9F780959095BC01CD010895EE0FFF1F5C
:100780000590F491E02D099410E0CFE3D0E004C08F
:10079000FE010E94BE032196C034D107C9F7F89428
:0207A000FFCF89
:0207A20001A0B4
:00000001FF
