:100000000C9440000C9468000C9468000C946800F8
:100010000C9468000C9468000C9468000C946800C0
:100020000C9468000C9468000C9468000C946800B0
:100030000C9468000C9468000C9468000C946800A0
:100040000C9468000C9468000C9468000C94680090
:100050000C9468000C9468000C9468000C94680080
:100060000C9468000C9468000C9468000C94680070
:100070000C9468000C9468000C94680026083608FC
:1000800011241FBECFEFD8E0DEBFCDBF11E0A0E04E
:10009000B1E0EAE2F4E102C005900D92AE34B1079E
:1000A000D9F721E0AEE4B1E001C01D92A93AB20750
:1000B000E1F710E0CFE3D0E004C02197FE010E94F9
:1000C0006608CE33D107C9F70E946B070C94080A63
:1000D0000C94000087EA91E00E9470062FEF84E301
:1000E0009CE0215080409040E1F700C0000087EA8A
:1000F00091E00E9484062FEF84E39CE02150804031
:100100009040E1F700C0000087EA91E00E9470068D
:100110002FEF84E39CE0215080409040E1F700C045
:10012000000087EA91E00E9484062FEF84E39CE0C0
:10013000215080409040E1F700C0000087EA91E044
:100140000E946D062FEF84E39CE021508040904098
:10015000E1F700C0000087EA91E00E9484062FEFDB
:1001600084E39CE0215080409040E1F700C0000013
:1001700087EA91E00E946D062FEF84E39CE0215016
:1001800080409040E1F700C0000087EA91E00E94C3
:1001900084062FEF84E39CE0215080409040E1F7FB
:1001A00000C000000895009B04C081E080935A01C4
:1001B00003C0009B10925A01019B04C081E0809310
:1001C000590103C0019B10925901029B04C081E0B8
:1001D0008093580103C0029B10925801039B04C0F6
:1001E00081E08093570103C0039B10925701049B49
:1001F00004C081E0809356010895049B109256013B
:10020000089580915A0190915801882351F02091CE
:100210005901222331F0992391F081E08093540118
:100220000895992361F080915701882369F08091A6
:100230005601882349F081E08093530108959091FD
:100240005901911109C002C04CE309C090915701B6
:10025000911104C0882329F04CE308C040E06CE30E
:1002600006C0809156018111F9CF40E060E085EA37
:1002700091E00C94B60680915601811105C08091E1
:100280005A01882321F007C04CE360E016C080913A
:100290005901882311F040E00FC080915801882354
:1002A00051F040E060E085EA91E00E94B60681E00E
:1002B0008093020108954CE36CE385EA91E00C948D
:1002C000B6064CE36CE385EA91E00E94B6062FEF98
:1002D00084E39CE0215080409040E1F700C00000A2
:1002E00040E060E085EA91E00E94B6062FEF89E6E3
:1002F00098E1215080409040E1F700C0000008954F
:100300000E9461010E94D30080915801811108C0B0
:1003100080915701811104C080915601882339F0E2
:1003200087EA91E00E94700610925301089587EACF
:1003300091E00E946D0668E285EA91E00E94200744
:10034000E1CF823711F40C9480018C36E9F40E94DD
:1003500061010E94D30080915A01811108C08091EF
:100360005901811104C080915801882339F087EA2E
:1003700091E00E94700610925401089568E285EAA7
:1003800091E00E940507E5CF0895169A88E28A95C4
:10039000F1F716980895079BFECF80E090E0079B49
:1003A00004C000C000C00196FACF6AE370E00E946A
:1003B0003E0860935501089585EA91E00E94A906E0
:1003C0000E94C5010E94CB012FE788E391E02150F4
:1003D00080409040E1F700C000006091550188EA3C
:1003E00091E00E945D07809155018A3020F0809154
:1003F0005501853168F0809155018A3010F440E054
:1004000008C080915501853148F04CE360E002C09E
:100410004CE36CE385EA91E00C94B606089587EA14
:1004200091E00E94700620915A01809159019091AB
:100430005801222319F0811103C004C0882369F0F8
:10044000911113C0222349F0882309F442C0992353
:1004500021F030915701311108C08823D1F199233F
:10046000E1F1309157013323A1F12FEF82E597E0BD
:10047000215080409040E1F700C0000090915A0167
:1004800080915901992319F0811103C006C0882376
:1004900081F020915801211116C0992351F0882331
:1004A000B1F190915801992321F090915701911148
:1004B0000AC0882361F180915801882341F180911D
:1004C0005701882321F180914F018F5F80934F0165
:1004D0000895992311F04CE30CC090915701992392
:1004E00019F040E068E20FC090915601992319F08D
:1004F00040E06CE308C0211102C0882311F04CE3F6
:1005000001C040E060E085EA91E00C94B6060895F1
:1005100087EA91E00E946D0680915A0190915901FD
:10052000882371F09923E1F020915801222341F0B2
:1005300020915701222321F02091560121110AC058
:10054000992371F020915801222351F08091570195
:10055000882391F01092520181E080935101089517
:1005600020915701222369F030915801332349F03B
:10057000992339F1882359F00E9461018CE60C948B
:10058000A101882311F04CE317C0992311F048E230
:1005900013C0222319F040E068E20FC08091560199
:1005A000882311F040E005C080915801882319F09C
:1005B0004CE36CE302C040E060E085EA91E00C941B
:1005C000B606882341F3DFCF87EA91E00E947306E5
:1005D00080915A0190915901209158013091560112
:1005E000882359F0992349F0222339F0409157018B
:1005F000442319F0332381F00AC0332369F099238F
:1006000059F0222339F040915701442351F11092BF
:100610005101089581110BC0992339F0222339F03B
:100620000E9461018CE60C94A101211107C0209168
:100630005701222351F040E068E20BC04CE303C0B5
:1006400040E0332329F06CE304C0992331F048E201
:1006500060E085EA91E00C94B606882389F34CE3C8
:10066000F7CF8111DDCFD8CF20915A018091590168
:1006700090915801222319F0811103C004C08823EE
:1006800061F0911112C0222341F08823E9F19923EE
:1006900021F020915701211108C08823A9F1992345
:1006A000B9F1809157018823C9F12FEF82E597E0D6
:1006B000215080409040E1F700C0000020915A0195
:1006C0008091590190915801222319F0811103C0A2
:1006D00004C0882361F0911112C0222341F08823C5
:1006E00099F0992321F020915701211108C0882306
:1006F00059F0992369F080915701882379F080910E
:100700004E018F5F80934E0180915801811106C088
:1007100080915601882329F040E001C04CE36CE34E
:1007200015C080915701882319F040E068E20EC09F
:1007300080915A01882311F04CE307C08091590140
:10074000882311F048E201C040E060E085EA91E0D2
:100750000C94B606DC019AE4E3E0F1E001900D921E
:100760009A95E1F70895089584B5826484BD85B5AE
:10077000846085BD089514B817BC16BC15BC0895D7
:100780001F93CF93DF93EC01E62FF0E0BD97EE0FC0
:10079000FF1FEC0FFD1F6081718180E090E00E94DF
:1007A0000D099B01AC0160E070E080E89FE30E94CE
:1007B0006C0820E030E040E05FE30E949B0920E00D
:1007C00034E244EF56E40E949B090E94DE08162F93
:1007D000CE010E94B40317BDDF91CF911F91089500
:1007E000CF93DF93EC0161E40E94C0032FEF84E319
:1007F0009CE0215080409040E1F700C0000061E49F
:10080000CE010E94C0032FEF84E39CE02150804082
:100810009040E1F700C00000DF91CF910895CF93A1
:10082000DF93EC016AE40E94C0032FE78AE196E0BF
:10083000215080409040E1F700C000006AE4CE0102
:100840000E94C0032FE78AE196E02150804090404B
:10085000E1F700C000006CE4CE010E94C0032FE766
:100860008AE196E0215080409040E1F700C000000E
:100870006AE4CE010E94C0032FE78AE196E021508E
:1008800080409040E1F700C0000067E4CE010E9484
:10089000C0032FE78AE196E0215080409040E1F7C5
:1008A00000C0000064E4CE010E94C0032FE78AE18B
:1008B00096E0215080409040E1F700C0000067E4DE
:1008C000CE010E94C0032FE78AE196E021508040CC
:1008D0009040E1F700C000006AE4CE010E94C0032E
:1008E0002FE78AE196E0215080409040E1F700C078
:1008F00000006CE4CE010E94C0032FE78AE196E07D
:10090000215080409040E1F700C000006AE4CE0131
:100910000E94C0032FEF82E597E021508040904075
:10092000E1F700C0000067E4CE010E94C0032FEF92
:1009300084E39CE0215080409040E1F700C000003B
:100940006AE4CE010E94C0032FEF84E39CE02150B3
:1009500080409040E1F700C0000067E4CE010E94B3
:10096000C0032FEF84E39CE0215080409040E1F7EA
:1009700000C000006AE4CE010E94C0032FEF84E3B0
:100980009CE0215080409040E1F700C0000067E407
:10099000CE010E94C0032FE78AE196E021508040FB
:1009A0009040E1F700C000006FE4CE010E94C00358
:1009B0002FE78AE196E0215080409040E1F700C0A7
:1009C00000006FE4CE010E94C0032FE78AE196E0A9
:1009D000215080409040E1F700C0000061E5CE0169
:1009E0000E94C0032FE78AE196E0215080409040AA
:1009F000E1F700C000006FE4CE010E94C0032FE7C2
:100A00008AE196E0215080409040E1F700C000006C
:100A10006CE4CE010E94C0032FE78AE196E02150EA
:100A200080409040E1F700C0000068E4CE010E94E1
:100A3000C0032FE78AE196E0215080409040E1F723
:100A400000C000006CE4CE010E94C0032FE78AE1E1
:100A500096E0215080409040E1F700C000006FE434
:100A6000CE010E94C0032FE78AE196E0215080402A
:100A70009040E1F700C0000061E5CE010E94C00394
:100A80002FE78AE196E0215080409040E1F700C0D6
:100A900000006FE4CE010E94C0032FEF82E597E0D3
:100AA000215080409040E1F700C000006CE4CE018E
:100AB0000E94C0032FEF84E39CE0215080409040CF
:100AC000E1F700C000006AE4CE010E94C0032FEFEE
:100AD00084E39CE0215080409040E1F700C000009A
:100AE00067E4CE010E94C0032FEF84E39CE0215015
:100AF00080409040E1F700C000006AE4CE010E940F
:100B0000C0032FEF84E39CE0215080409040E1F748
:100B100000C0000067E4CE010E94C0032FEF82E511
:100B200097E0215080409040E1F700C000006FE462
:100B3000CE010E94C0032FEF84E39CE0215080404F
:100B40009040E1F700C000006CE4CE010E94C003B9
:100B50002FEF84E39CE0215080409040E1F700C0FB
:100B600000006AE4CE010E94C0032FEF84E39CE002
:100B7000215080409040E1F700C0000067E4CE01C2
:100B80000E94C0032FEF84E39CE0215080409040FE
:100B9000E1F700C000006FE4CE010E94C0032FEF18
:100BA00084E39CE0215080409040E1F700C00000C9
:100BB0006CE4CE010E94C0032FEF84E39CE021503F
:100BC00080409040E1F700C000006AE4CE010E943E
:100BD000C0032FEF84E39CE0215080409040E1F778
:100BE00000C0000067E4CE010E94C0032FEF84E341
:100BF0009CE0215080409040E1F700C000006FE48D
:100C0000CE010E94C0032FEF84E39CE0215080407E
:100C10009040E1F700C000006CE4CE010E94C003E8
:100C20002FEF84E39CE0215080409040E1F700C02A
:100C300000006AE4CE010E94C0032FEF84E39CE031
:100C4000215080409040E1F700C0000067E4CE01F1
:100C50000E94C0032FEF84E39CE02150804090402D
:100C6000E1F700C000006AE4CE010E94C0032FEF4C
:100C700084E39CE0215080409040E1F700C00000F8
:100C80006CE4CE010E94C0032FE784E89EE121506E
:100C900080409040E1F700C000006EE4CE010E9469
:100CA000C0032FEF84E39CE0215080409040E1F7A7
:100CB00000C000006FE4CE010E94C0032FEF8EE958
:100CC00094E2215080409040E1F700C00000CE0146
:100CD000DF91CF910C94BB03089581E085B908950D
:100CE00082E085B9089581E085B98FE19EE401979E
:100CF000F1F700C0000082E085B98FE19EE4019722
:100D0000F1F700C00000089515B808950895FC019A
:100D10002FEF629FC00111242CE93FEFB9010E941F
:100D20005208615060835FEF459FC0011124B901F3
:100D30000E94520861506183089508952FEF629FC9
:100D4000C00111246CE97FEF0E9452088FEF860FDB
:100D50000895109285001092840081EF80938000A6
:100D600082E080938100109282000895CF93DF93F8
:100D7000FC0180E38BB98BB18BB92FEF629FC0016F
:100D80001124CCE9DFEFBE010E9452082FEF260F9D
:100D900020833FEF439FC0011124BE010E945208EF
:100DA00061506183622F70E070938B0060938A00C2
:100DB000818190E09093890080938800DF91CF91AA
:100DC0000895FC011BB880EF8BB92FEF629FC00123
:100DD00011242CE93FEFB9010E9452086150608351
:100DE0005FEF459FC0011124B9010E945208615074
:100DF000618370E07093890060938800808190E047
:100E000090938B0080938A000895FC011BB880E7C3
:100E10008BB92FEF629FC00111246CE97FEF0E9414
:100E2000520861506083618370E070938B0060931F
:100E30008A00818190E090938900809388000895D2
:100E4000FC011BB88BB1806B8BB92FEF629FC00187
:100E500011246CE97FEF0E94520861506083618326
:100E600070E070938B0060938A00818190E0909392
:100E7000890080938800089510928000109281006C
:100E800010926E00109289001092880010928B00D0
:100E900010928A0008951092C5008FEC8093C400D0
:100EA000E1ECF0E0808188618083E2ECF0E0808119
:100EB0008660808308950C944B078091C00085FF65
:100EC000FCCF6093C60008958091C00087FFFCCFDF
:100ED0008091C60008950E9A8FEF84B98AB985EA89
:100EE00091E00E94A90685E080930201C1E0809113
:100EF0000201823009F467C030F4882371F0813038
:100F000009F446C0F6CF843009F465C008F460C027
:100F1000853079F7C09350016FC06CE385EA91E0AA
:100F20000E9405072FEF89E698E12150804090400C
:100F3000E1F700C000006CE385EA91E00E94200721
:100F40002FEF89E698E1215080409040E1F700C002
:100F500000004CE36CE385EA91E00E94B6062FEFB7
:100F600089E698E1215080409040E1F700C0000000
:100F70004CE36CE385EA91E00E94E1062FEF89E6FD
:100F800098E1215080409040E1F700C00000AFCFD1
:100F900080915301882339F080910101882319F051
:100FA0000E9480010BC080915401882339F0809108
:100FB0000001882319F08CE60E94A1010E94D30051
:100FC0000E94010194CF0E94D3000E943B018FCF69
:100FD0000E94DC018CCF0E94D30089CF0E94D300F5
:100FE0000E940F0280914F01833031F410924F0123
:100FF00010925001C0935201809150018111EECFA7
:101000000E9461012FEF80E792E0215080409040E4
:10101000E1F700C000008CE60E94A101809152011E
:10102000882329F00E94D3000E948802F7CF0E94F3
:1010300061018CE60E94A10180915101882309F48D
:1010400056CF0E94D3000E94E402F6CF88EA91E0D6
:101050000E945B0787EA91E00E946C0685EA91E0B6
:101060000E9486068BE591E00C94AA038BE591E043
:101070000E94B30385EA91E00C949D06AA1BBB1B5A
:1010800051E107C0AA1FBB1FA617B70710F0A61B88
:10109000B70B881F991F5A95A9F780959095BC01A9
:1010A000CD01089597FB072E16F4009407D077FD25
:1010B00009D00E943E0807FC05D03EF4909581952A
:1010C0009F4F0895709561957F4F0895EE0FFF1F14
:1010D0000590F491E02D09940E9480080C94610918
:1010E0000E945A0958F00E94530940F029F45F3FCA
:1010F00029F00C944A0951110C9495090C9450094B
:101100000E94720968F39923B1F3552391F3951B5B
:10111000550BBB27AA2762177307840738F09F5F18
:101120005F4F220F331F441FAA1FA9F335D00E2E85
:101130003AF0E0E832D091505040E695001CCAF7F2
:101140002BD0FE2F29D0660F771F881FBB1F2617B5
:1011500037074807AB07B0E809F0BB0B802DBF018C
:10116000FF2793585F4F3AF09E3F510578F00C945B
:101170004A090C9495095F3FE4F3983ED4F38695B1
:1011800077956795B795F7959F5FC9F7880F911D7C
:101190009695879597F90895E1E0660F771F881F68
:1011A000BB1F621773078407BA0720F0621B730B1B
:1011B000840BBA0BEE1F88F7E09508950E947A0918
:1011C00088F09F5798F0B92F9927B751B0F0E1F008
:1011D000660F771F881F991F1AF0BA95C9F714C0B8
:1011E000B13091F00E949409B1E008950C949409F3
:1011F000672F782F8827B85F39F0B93FCCF38695F1
:1012000077956795B395D9F73EF49095809570954D
:1012100061957F4F8F4F9F4F0895E89409C097FBCA
:101220003EF490958095709561957F4F8F4F9F4FBD
:101230009923A9F0F92F96E9BB279395F695879501
:1012400077956795B795F111F8CFFAF4BB0F11F4C4
:1012500060FF1BC06F5F7F4F8F4F9F4F16C088236B
:1012600011F096E911C0772321F09EE8872F762FA1
:1012700005C0662371F096E8862F70E060E02AF0E2
:101280009A95660F771F881FDAF7880F96958795CE
:1012900097F9089597F99F6780E870E060E00895F6
:1012A0009FEF80EC089500240A941616170618067E
:1012B0000906089500240A9412161306140605065A
:1012C0000895092E0394000C11F4882352F0BB0FEB
:1012D00040F4BF2B11F460FF04C06F5F7F4F8F4F4E
:1012E0009F4F089557FD9058440F551F59F05F3F89
:1012F00071F04795880F97FB991F61F09F3F79F038
:1013000087950895121613061406551FF2CF4695B9
:10131000F1DF08C0161617061806991FF1CF86953B
:101320007105610508940895E894BB27662777271F
:10133000CB0197F908950E94AE090C9461090E94AF
:10134000530938F00E945A0920F0952311F00C94AB
:101350004A090C94500911240C9495090E947209B1
:1013600070F3959FC1F3950F50E0551F629FF001F8
:10137000729FBB27F00DB11D639FAA27F00DB11D11
:10138000AA1F649F6627B00DA11D661F829F22279A
:10139000B00DA11D621F739FB00DA11D621F839F21
:1013A000A00D611D221F749F3327A00D611D231FF7
:1013B000849F600D211D822F762F6A2F11249F5745
:1013C00050409AF0F1F088234AF0EE0FFF1FBB1F48
:1013D000661F771F881F91505040A9F79E3F510507
:1013E00080F00C944A090C9495095F3FE4F3983E11
:1013F000D4F3869577956795B795F795E7959F5FB1
:10140000C1F7FE2B880F911D9695879597F9089542
:1014100010E0CFE3D0E004C0FE010E9466082196F0
:0A142000C034D107C9F7F894FFCFDC
:10142A000404016E0074007B0082008A0092009B13
:10143A0000A400AE00B800C300CF00DC00E900F64B
:10144A0000050115012501370149015D0171018777
:10145A00019F01B801D201ED010B022A024B026E73
:0E146A00029302BA02E3020F033E0370030076
:00000001FF
