:100000000C9440000C945D000C945D000C945D0019
:100010000C945D000C945D000C945D000C945D00EC
:100020000C945D000C945D000C945D000C945D00DC
:100030000C945D000C945D000C945D000C945D00CC
:100040000C945D000C945D000C945D000C945D00BC
:100050000C945D000C945D000C945D000C945D00AC
:100060000C945D000C945D000C945D000C945D009C
:100070000C945D000C945D000C945D00C401CC01F7
:1000800011241FBECFEFD8E0DEBFCDBF21E0A0E03E
:10009000B1E001C01D92A830B207E1F710E0CFE354
:1000A000D0E004C02197FE010E94F801CE33D107B1
:1000B000C9F70E94B7010C94FE010C94000087E080
:1000C00091E00E9408012FEF84E39CE021508040E2
:1000D0009040E1F700C0000087E091E00E941C0121
:1000E0002FEF84E39CE0215080409040E1F700C076
:1000F000000087E091E00E9408012FEF84E39CE07C
:10010000215080409040E1F700C0000087E091E07E
:100110000E941C012FEF84E39CE02150804090401E
:10012000E1F700C0000087E091E00E9405012FEF99
:1001300084E39CE0215080409040E1F700C0000043
:1001400087E091E00E941C012FEF84E39CE02150A6
:1001500080409040E1F700C0000087E091E00E94FD
:1001600005012FEF84E39CE0215080409040E1F7AF
:1001700000C0000087E091E00E941C012FEF84E3A3
:100180009CE0215080409040E1F700C000000895BD
:10019000009B04C081E08093040103C0009B109287
:1001A0000401019B04C081E08093030103C0019B13
:1001B00010920301029B04C081E08093020103C0FE
:1001C000029B10920201039B04C081E08093010115
:1001D00003C0039B10920101049B04C081E0809343
:1001E00000010895049B109200010895809102017E
:1001F000882331F042E362E385E091E00C944E0104
:1002000085E091E00C94A701089581E085B90895F7
:1002100082E085B9089581E085B98FE19EE4019778
:10022000F1F700C0000082E085B98FE19EE40197FC
:10023000F1F700C00000089515B808950895FC0175
:100240002FEF629FC00111242CE93FEFB9010E94FA
:10025000D001615060835FEF459FC0011124B90157
:100260000E94D00161506183089508952FEF629F2D
:10027000C00111246CE97FEF0E94D0018FEF860F3F
:100280000895109285001092840081EF8093800081
:1002900082E080938100109282000895CF93DF93D3
:1002A000FC0180E38BB92FEF629FC0011124CCE9E0
:1002B000DFEFBE010E94D0012FEF260F20833FEF1A
:1002C000439FC0011124BE010E94D001615061838F
:1002D000622F70E07093890060938800818190E0C4
:1002E00090938B0080938A00DF91CF910895CF93F4
:1002F000DF93FC0180EF8BB92FEF629FC0011124C7
:10030000CCE9DFEFBE010E94D0012FEF260F208342
:100310003FEF439FC0011124BE010E94D0016150F4
:100320006183622F70E070938900609388008181FF
:1003300090E090938B0080938A00DF91CF91089595
:1003400040E00C944E01462F60E00C944E01109258
:1003500080001092810010926E001092890010921D
:10036000880010928B0010928A001BB8089511B873
:100370008FEF84B98AB985E091E00E9441010E9423
:10038000C8000E94F600FBCF87E091E00E940401C4
:1003900085E091E00C941E0185E091E00C9435011C
:1003A00097FB072E16F4009407D077FD09D00E9422
:1003B000E40107FC05D03EF4909581959F4F089588
:1003C000709561957F4F0895AA1BBB1B51E107C033
:1003D000AA1FBB1FA617B70710F0A61BB70B881FD5
:1003E000991F5A95A9F780959095BC01CD01089564
:1003F000EE0FFF1F0590F491E02D099410E0CFE37C
:10040000D0E004C0FE010E94F8012196C034D1075B
:06041000C9F7F894FFCFCC
:00000001FF
