:100000000C9440000C9468000C9468000C946800F8
:100010000C9468000C9468000C9468000C946800C0
:100020000C9468000C9468000C9468000C946800B0
:100030000C9468000C9468000C9468000C946800A0
:100040000C9468000C9468000C9468000C94680090
:100050000C9468000C9468000C9468000C94680080
:100060000C9468000C9468000C9468000C94680070
:100070000C9468000C9468000C946800B304BF04EE
:1000800011241FBECFEFD8E0DEBFCDBF11E0A0E04E
:10009000B1E0ECE3FDE002C005900D92AA34B10797
:1000A000D9F721E0AAE4B1E001C01D92AD39B20751
:1000B000E1F710E0CFE3D0E004C02197FE010E94F9
:1000C000EF04CE33D107C9F70E9496040C94910631
:1000D0000C940000009B04C081E080934E0103C09B
:1000E000009B10924E01019B04C081E080934D0162
:1000F00003C0019B10924D01029B04C081E08093DC
:100100004C0103C0029B10924C01039B04C081E090
:1001100080934B0103C0039B10924B01049B04C0CE
:1001200081E080934A010895049B10924A0108954A
:1001300080914E01882311F042E31AC080914D0155
:10014000882311F048E214C080914C01882311F0FB
:1001500042E30CC080914B01882319F040E068E233
:1001600008C080914A0140E0882311F062E301C099
:1001700060E08AE991E00C94330420914E01909163
:100180004D0180914C012223C9F0911129C08111A8
:1001900034C080914B01811106C080914A018823AF
:1001A00011F04AE218C080914B01811128C0809162
:1001B0004A01811124C04AE262E30EC0911110C0CD
:1001C00081111BC080914B01811119C080914A019E
:1001D0008823A9F042E36AE28AE991E00C943304AF
:1001E000992359F0811132C080914B0181112EC0A9
:1001F00080914A0181112AC0DECF811105C0809112
:100200004B01882319F1E6CF222301F180914B01A4
:1002100081111CC080914A018823C1F08AE991E0D4
:100220000E94860480E591E00E946D0180E591E0E6
:100230000E9438012FEF89E698E1215080409040DC
:10024000E1F700C0000010924F0108950895DC010D
:100250009AE4E0E0F1E001900D929A95E1F70895BB
:10026000089584B5826484BD85B5846085BD089594
:1002700014B817BC16BC15BC08951F93CF93DF9319
:10028000EC01E62FF0E0BD97EE0FFF1FEC0FFD1F16
:100290006081718180E090E00E9496059B01AC0135
:1002A00060E070E080E89FE30E94F50420E030E029
:1002B00040E05FE30E94240620E034E244EF56E48D
:1002C0000E9424060E946705162FCE010E9431016C
:1002D00017BDDF91CF911F910895CF93DF93EC016C
:1002E00061E40E943D012FEF84E39CE021508040B7
:1002F0009040E1F700C0000061E4CE010E943D01A2
:100300002FEF84E39CE0215080409040E1F700C053
:100310000000DF91CF910895CF93DF93EC016AE461
:100320000E943D012FE78AE196E0215080409040F5
:10033000E1F700C000006AE4CE010E943D012FE712
:100340008AE196E0215080409040E1F700C0000033
:100350006CE4CE010E943D012FE78AE196E0215036
:1003600080409040E1F700C000006AE4CE010E94A6
:100370003D012FE78AE196E0215080409040E1F76F
:1003800000C0000067E4CE010E943D012FE78AE132
:1003900096E0215080409040E1F700C0000064E406
:1003A000CE010E943D012FE78AE196E02150804076
:1003B0009040E1F700C0000067E4CE010E943D01DB
:1003C0002FE78AE196E0215080409040E1F700C09D
:1003D00000006AE4CE010E943D012FE78AE196E029
:1003E000215080409040E1F700C000006CE4CE0155
:1003F0000E943D012FE78AE196E021508040904025
:10040000E1F700C000006AE4CE010E943D012FEF39
:1004100082E597E0215080409040E1F700C0000065
:1004200067E4CE010E943D012FEF84E39CE0215060
:1004300080409040E1F700C000006AE4CE010E94D5
:100440003D012FEF84E39CE0215080409040E1F794
:1004500000C0000067E4CE010E943D012FEF84E35D
:100460009CE0215080409040E1F700C000006AE429
:10047000CE010E943D012FEF84E39CE0215080409B
:100480009040E1F700C0000067E4CE010E943D010A
:100490002FE78AE196E0215080409040E1F700C0CC
:1004A00000006FE4CE010E943D012FE78AE196E053
:1004B000215080409040E1F700C000006FE4CE0181
:1004C0000E943D012FE78AE196E021508040904054
:1004D000E1F700C0000061E5CE010E943D012FE779
:1004E0008AE196E0215080409040E1F700C0000092
:1004F0006FE4CE010E943D012FE78AE196E0215092
:1005000080409040E1F700C000006CE4CE010E9402
:100510003D012FE78AE196E0215080409040E1F7CD
:1005200000C0000068E4CE010E943D012FE78AE18F
:1005300096E0215080409040E1F700C000006CE45C
:10054000CE010E943D012FE78AE196E021508040D4
:100550009040E1F700C000006FE4CE010E943D0131
:100560002FE78AE196E0215080409040E1F700C0FB
:10057000000061E5CE010E943D012FE78AE196E08F
:10058000215080409040E1F700C000006FE4CE01B0
:100590000E943D012FEF82E597E02150804090407E
:1005A000E1F700C000006CE4CE010E943D012FEF96
:1005B00084E39CE0215080409040E1F700C00000BF
:1005C0006AE4CE010E943D012FEF84E39CE02150BC
:1005D00080409040E1F700C0000067E4CE010E9437
:1005E0003D012FEF84E39CE0215080409040E1F7F3
:1005F00000C000006AE4CE010E943D012FEF84E3B9
:100600009CE0215080409040E1F700C0000067E48A
:10061000CE010E943D012FEF82E597E021508040FE
:100620009040E1F700C000006FE4CE010E943D0160
:100630002FEF84E39CE0215080409040E1F700C020
:1006400000006CE4CE010E943D012FEF84E39CE0AA
:10065000215080409040E1F700C000006AE4CE01E4
:100660000E943D012FEF84E39CE0215080409040A8
:10067000E1F700C0000067E4CE010E943D012FEFCA
:1006800084E39CE0215080409040E1F700C00000EE
:100690006FE4CE010E943D012FEF84E39CE02150E6
:1006A00080409040E1F700C000006CE4CE010E9461
:1006B0003D012FEF84E39CE0215080409040E1F722
:1006C00000C000006AE4CE010E943D012FEF84E3E8
:1006D0009CE0215080409040E1F700C0000067E4BA
:1006E000CE010E943D012FEF84E39CE02150804029
:1006F0009040E1F700C000006FE4CE010E943D0190
:100700002FEF84E39CE0215080409040E1F700C04F
:1007100000006CE4CE010E943D012FEF84E39CE0D9
:10072000215080409040E1F700C000006AE4CE0113
:100730000E943D012FEF84E39CE0215080409040D7
:10074000E1F700C0000067E4CE010E943D012FEFF9
:1007500084E39CE0215080409040E1F700C000001D
:100760006AE4CE010E943D012FEF84E39CE021501A
:1007700080409040E1F700C000006CE4CE010E9490
:100780003D012FE784E89EE1215080409040E1F751
:1007900000C000006EE4CE010E943D012FEF84E313
:1007A0009CE0215080409040E1F700C000006FE4E1
:1007B000CE010E943D012FEF8EE994E2215080404E
:1007C0009040E1F700C00000CE01DF91CF910C9482
:1007D0003801089581E085B9089582E085B90895CA
:1007E00081E085B98FE19EE40197F1F700C0000038
:1007F00082E085B98FE19EE40197F1F700C0000027
:10080000089515B808950895FC012FEF629FC00167
:1008100011242CE93FEFB9010E94C70461506083A5
:100820005FEF459FC0011124B9010E94C7046150C8
:100830006183089508952FEF629FC00111246CE930
:100840007FEF0E94C7048FEF860F089510928500F6
:100850001092840081EF8093800082E08093810079
:10086000109282000895CF93DF93FC0180E38BB94F
:100870002FEF629FC0011124CCE9DFEFBE010E947F
:10088000C7042FEF260F20833FEF439FC0011124A1
:10089000BE010E94C70461506183622F70E07093B3
:1008A0008B0060938A00818190E09093890080930F
:1008B0008800DF91CF910895FC0180EF8BB92FEF75
:1008C000629FC00111242CE93FEFB9010E94C704C7
:1008D000615060835FEF459FC0011124B9010E9400
:1008E000C7046150618370E0709389006093880051
:1008F000808190E090938B0080938A00089540E07F
:100900000C943304462F60E00C9433041092800062
:100910001092810010926E0010928900109288004F
:1009200010928B0010928A001BB8089511B88FEFB7
:1009300084B98AB987B98AE991E00E9426040E94A5
:100940006A000E94980080914F01882339F081301D
:10095000B1F70E946A000E94BD00F1CF0E946A00B8
:100960000E949800ECCF8CE991E00E94E9038AE9AB
:1009700091E00E94030480E591E00C94270180E55A
:1009800091E00E9430018AE991E00C941A0497FBEF
:10099000072E16F4009407D077FD09D00E94DB04DF
:1009A00007FC05D03EF4909581959F4F0895709572
:1009B00061957F4F0895AA1BBB1B51E107C0AA1F79
:1009C000BB1FA617B70710F0A61BB70B881F991FF0
:1009D0005A95A9F780959095BC01CD010895EE0F29
:1009E000FF1F0590F491E02D09940E9409050C94D5
:1009F000EA050E94E30558F00E94DC0540F029F466
:100A00005F3F29F00C94D30551110C941E060C94F1
:100A1000D9050E94FB0568F39923B1F3552391F39F
:100A2000951B550BBB27AA2762177307840738F05D
:100A30009F5F5F4F220F331F441FAA1FA9F335D0BA
:100A40000E2E3AF0E0E832D091505040E695001C6E
:100A5000CAF72BD0FE2F29D0660F771F881FBB1F28
:100A6000261737074807AB07B0E809F0BB0B802D06
:100A7000BF01FF2793585F4F3AF09E3F510578F032
:100A80000C94D3050C941E065F3FE4F3983ED4F318
:100A9000869577956795B795F7959F5FC9F7880F06
:100AA000911D9695879597F90895E1E0660F771F58
:100AB000881FBB1F621773078407BA0720F0621BE9
:100AC000730B840BBA0BEE1F88F7E09508950E9414
:100AD000030688F09F5798F0B92F9927B751B0F0C7
:100AE000E1F0660F771F881F991F1AF0BA95C9F7B2
:100AF00014C0B13091F00E941D06B1E008950C942D
:100B00001D06672F782F8827B85F39F0B93FCCF3DF
:100B1000869577956795B395D9F73EF4909580952E
:100B2000709561957F4F8F4F9F4F0895E89409C04E
:100B300097FB3EF490958095709561957F4F8F4F10
:100B40009F4F9923A9F0F92F96E9BB279395F69526
:100B5000879577956795B795F111F8CFFAF4BB0FA4
:100B600011F460FF1BC06F5F7F4F8F4F9F4F16C008
:100B7000882311F096E911C0772321F09EE8872F92
:100B8000762F05C0662371F096E8862F70E060E04E
:100B90002AF09A95660F771F881FDAF7880F9695C7
:100BA000879597F9089597F99F6780E870E060E06E
:100BB00008959FEF80EC089500240A9416161706F6
:100BC00018060906089500240A941216130614063E
:100BD00005060895092E0394000C11F4882352F0A1
:100BE000BB0F40F4BF2B11F460FF04C06F5F7F4F59
:100BF0008F4F9F4F089557FD9058440F551F59F040
:100C00005F3F71F04795880F97FB991F61F09F3FF9
:100C100079F087950895121613061406551FF2CF22
:100C20004695F1DF08C0161617061806991FF1CF72
:100C300086957105610508940895E894BB27662799
:100C40007727CB0197F908950E9437060C94EA059F
:100C50000E94DC0538F00E94E30520F0952311F096
:100C60000C94D3050C94D90511240C941E060E94F3
:100C7000FB0570F3959FC1F3950F50E0551F629FE0
:100C8000F001729FBB27F00DB11D639FAA27F00DE5
:100C9000B11DAA1F649F6627B00DA11D661F829F0C
:100CA0002227B00DA11D621F739FB00DA11D621FF1
:100CB000839FA00D611D221F749F3327A00D611D0E
:100CC000231F849F600D211D822F762F6A2F1124F0
:100CD0009F5750409AF0F1F088234AF0EE0FFF1F23
:100CE000BB1F661F771F881F91505040A9F79E3F7A
:100CF000510580F00C94D3050C941E065F3FE4F37D
:100D0000983ED4F3869577956795B795F795E795CF
:100D10009F5FC1F7FE2B880F911D9695879597F9D8
:100D2000089510E0CFE3D0E004C0FE010E94EF047C
:0C0D30002196C034D107C9F7F894FFCF1A
:100D3C006E0074007B0082008A0092009B00A4006D
:100D4C00AE00B800C300CF00DC00E900F6000501DE
:100D5C0015012501370149015D01710187019F01D1
:100D6C00B801D201ED010B022A024B026E02930272
:0A0D7C00BA02E3020F033E03700306
:00000001FF
