:100000000C9440000C9468000C9468000C946800F8
:100010000C9468000C9468000C9468000C946800C0
:100020000C9468000C9468000C9468000C946800B0
:100030000C9468000C9468000C9468000C946800A0
:100040000C9468000C9468000C9468000C94680090
:100050000C9468000C9468000C9468000C94680080
:100060000C9468000C9468000C9468000C94680070
:100070000C9468000C9468000C94680029063906FA
:1000800011241FBECFEFD8E0DEBFCDBF11E0A0E04E
:10009000B1E0E0E3F0E102C005900D92AC34B107AD
:1000A000D9F721E0ACE4B1E001C01D92A33AB20758
:1000B000E1F710E0CFE3D0E004C02197FE010E94F9
:1000C0006906CE33D107C9F70E94B4050C940B081A
:1000D0000C94000081EA91E00E94EB042FEF84E38E
:1000E0009CE0215080409040E1F700C0000081EA90
:1000F00091E00E94FF042FEF84E39CE021508040B8
:100100009040E1F700C0000081EA91E00E94EB041A
:100110002FEF84E39CE0215080409040E1F700C045
:10012000000081EA91E00E94FF042FEF84E39CE04D
:10013000215080409040E1F700C0000081EA91E04A
:100140000E94E8042FEF84E39CE02150804090401F
:10015000E1F700C0000081EA91E00E94FF042FEF68
:1001600084E39CE0215080409040E1F700C0000013
:1001700081EA91E00E94E8042FEF84E39CE02150A3
:1001800080409040E1F700C0000081EA91E00E94C9
:10019000FF042FEF84E39CE0215080409040E1F782
:1001A00000C000000895009B04C081E080935301CB
:1001B00003C0009B10925301019B04C081E0809317
:1001C000520103C0019B10925201029B04C081E0C6
:1001D0008093510103C0029B10925101039B04C004
:1001E00081E08093500103C0039B10925001049B57
:1001F00004C081E080934F010895049B10924F0149
:1002000008958091530190915101882351F02091DC
:100210005201222331F0992391F081E080934D0126
:100220000895992361F080915001882369F08091AD
:100230004F01882349F081E080934C01089590910B
:100240005201911109C002C04CE309C090915001C4
:10025000911104C0882329F04CE308C040E06CE30E
:1002600006C080914F018111F9CF40E060E08FE935
:1002700091E00C94310580915301811103C040E05D
:100280006CE319C080915201811103C040E06EE11E
:1002900012C080915101811102C040E00BC08091D9
:1002A0005001811102C04EE105C080914F018111C2
:1002B00006C04CE360E08FE991E00C9431058FE9D2
:1002C00091E00E94840585E591E00E946B0285E53E
:1002D00091E00E9436022FEF89E698E1215080409C
:1002E0009040E1F700C0000082E08093540108953F
:1002F00040E060E08FE991E00E9431052FEF89E650
:1003000098E1215080409040E1F700C000004CE3AC
:100310006CE38FE991E00E9431052FEF89E698E1C7
:10032000215080409040E1F700C000000895809186
:100330004C01882379F00E9478018091510181114C
:1003400006C06CE38FE991E00E948105F6CF109220
:100350004C01089580914D01882371F00E9478012D
:1003600080915101811106C06CE38FE991E00E94F8
:100370007D05F6CF10924D010895169A88E28A9570
:10038000F1F716980895079BFECF80E090E0079B59
:1003900004C000C000C00196FACF6AE370E00E947A
:1003A000410660934E0108958FE991E00E94240573
:1003B0000E94BD010E94C3012FE788E391E0215014
:1003C00080409040E1F700C0000060914E0182EA59
:1003D00091E00E94A60580914E018A3020F0809124
:1003E0004E01853168F080914E018A3010F440E072
:1003F00008C080914E01853148F04CE360E002C0B6
:100400004CE36CE38FE991E00C9431050895609121
:10041000530182EA91E00E94A6056091520182EAAE
:1004200091E00E94A6056091510182EA91E00E944C
:10043000A6056091500182EA91E00E94A6056091B4
:100440004F0182EA91E00C94A605DC019AE4E2E017
:10045000F1E001900D929A95E1F70895089584B521
:10046000826484BD85B5846085BD089514B817BCC9
:1004700016BC15BC08951F93CF93DF93EC01E62FB4
:10048000F0E0BD97EE0FFF1FEC0FFD1F6081718143
:1004900080E090E00E9410079B01AC0160E070E0FA
:1004A00080E89FE30E946F0620E030E040E05FE3D9
:1004B0000E949E0720E034E244EF56E40E949E072B
:1004C0000E94E106162FCE010E942F0217BDDF9178
:1004D000CF911F910895CF93DF93EC0161E40E94C7
:1004E0003B022FEF84E39CE0215080409040E1F7F5
:1004F00000C0000061E4CE010E943B022FEF84E3C4
:100500009CE0215080409040E1F700C00000DF9166
:10051000CF910895CF93DF93EC016AE40E943B02F0
:100520002FE78AE196E0215080409040E1F700C03B
:1005300000006AE4CE010E943B022FE78AE196E0C8
:10054000215080409040E1F700C000006CE4CE01F3
:100550000E943B022FE78AE196E0215080409040C4
:10056000E1F700C000006AE4CE010E943B022FE7E1
:100570008AE196E0215080409040E1F700C0000001
:1005800067E4CE010E943B022FE78AE196E021500A
:1005900080409040E1F700C0000064E4CE010E947A
:1005A0003B022FE78AE196E0215080409040E1F73E
:1005B00000C0000067E4CE010E943B022FE78AE101
:1005C00096E0215080409040E1F700C000006AE4CE
:1005D000CE010E943B022FE78AE196E02150804045
:1005E0009040E1F700C000006CE4CE010E943B02A5
:1005F0002FE78AE196E0215080409040E1F700C06B
:1006000000006AE4CE010E943B022FEF82E597E0F2
:10061000215080409040E1F700C0000067E4CE0127
:100620000E943B022FEF84E39CE0215080409040E9
:10063000E1F700C000006AE4CE010E943B022FEF08
:1006400084E39CE0215080409040E1F700C000002E
:1006500067E4CE010E943B022FEF84E39CE021502F
:1006600080409040E1F700C000006AE4CE010E94A3
:100670003B022FEF84E39CE0215080409040E1F763
:1006800000C0000067E4CE010E943B022FE78AE130
:1006900096E0215080409040E1F700C000006FE4F8
:1006A000CE010E943B022FE78AE196E02150804074
:1006B0009040E1F700C000006FE4CE010E943B02D1
:1006C0002FE78AE196E0215080409040E1F700C09A
:1006D000000061E5CE010E943B022FE78AE196E02F
:1006E000215080409040E1F700C000006FE4CE014F
:1006F0000E943B022FE78AE196E021508040904023
:10070000E1F700C000006CE4CE010E943B022FE73D
:100710008AE196E0215080409040E1F700C000005F
:1007200068E4CE010E943B022FE78AE196E0215067
:1007300080409040E1F700C000006CE4CE010E94D0
:100740003B022FE78AE196E0215080409040E1F79C
:1007500000C000006FE4CE010E943B022FE78AE157
:1007600096E0215080409040E1F700C0000061E534
:10077000CE010E943B022FE78AE196E021508040A3
:100780009040E1F700C000006FE4CE010E943B0200
:100790002FEF82E597E0215080409040E1F700C0C4
:1007A00000006CE4CE010E943B022FEF84E39CE04A
:1007B000215080409040E1F700C000006AE4CE0183
:1007C0000E943B022FEF84E39CE021508040904048
:1007D000E1F700C0000067E4CE010E943B022FEF6A
:1007E00084E39CE0215080409040E1F700C000008D
:1007F0006AE4CE010E943B022FEF84E39CE021508B
:1008000080409040E1F700C0000067E4CE010E9404
:100810003B022FEF82E597E0215080409040E1F7C6
:1008200000C000006FE4CE010E943B022FEF84E382
:100830009CE0215080409040E1F700C000006CE453
:10084000CE010E943B022FEF84E39CE021508040C8
:100850009040E1F700C000006AE4CE010E943B0234
:100860002FEF84E39CE0215080409040E1F700C0EE
:10087000000067E4CE010E943B022FEF84E39CE07E
:10088000215080409040E1F700C000006FE4CE01AD
:100890000E943B022FEF84E39CE021508040904077
:1008A000E1F700C000006CE4CE010E943B022FEF94
:1008B00084E39CE0215080409040E1F700C00000BC
:1008C0006AE4CE010E943B022FEF84E39CE02150BA
:1008D00080409040E1F700C0000067E4CE010E9434
:1008E0003B022FEF84E39CE0215080409040E1F7F1
:1008F00000C000006FE4CE010E943B022FEF84E3B2
:100900009CE0215080409040E1F700C000006CE482
:10091000CE010E943B022FEF84E39CE021508040F7
:100920009040E1F700C000006AE4CE010E943B0263
:100930002FEF84E39CE0215080409040E1F700C01D
:10094000000067E4CE010E943B022FEF84E39CE0AD
:10095000215080409040E1F700C000006AE4CE01E1
:100960000E943B022FEF84E39CE0215080409040A6
:10097000E1F700C000006CE4CE010E943B022FE7CB
:1009800084E89EE1215080409040E1F700C00000E3
:100990006EE4CE010E943B022FEF84E39CE02150E5
:1009A00080409040E1F700C000006FE4CE010E945B
:1009B0003B022FEF8EE994E2215080409040E1F716
:1009C00000C00000CE01DF91CF910C943602089553
:1009D00081E085B9089582E085B9089581E085B9FF
:1009E0008FE19EE40197F1F700C0000082E085B935
:1009F0008FE19EE40197F1F700C00000089515B85B
:100A000008950895FC012FEF629FC00111242CE985
:100A10003FEFB9010E945506615060835FEF459F2B
:100A2000C0011124B9010E945506615061830895E7
:100A300008952FEF629FC00111246CE97FEF0E949F
:100A400055068FEF860F089510928500109284004E
:100A500081EF8093800082E0809381001092820079
:100A60000895CF93DF93FC0180E38BB92FEF629F52
:100A7000C0011124CCE9DFEFBE010E9455062FEF23
:100A8000260F20833FEF439FC0011124BE010E9427
:100A9000550661506183622F70E070938B00609304
:100AA0008A00818190E09093890080938800DF9193
:100AB000CF910895FC0180EF8BB92FEF629FC001A9
:100AC00011242CE93FEFB9010E9455066150608363
:100AD0005FEF459FC0011124B9010E945506615086
:100AE000618370E07093890060938800808190E05A
:100AF00090938B0080938A000895462F60E00C94B9
:100B0000310540E00C943105109280001092810074
:100B100010926E00109289001092880010928B0043
:100B200010928A001BB808951092C5008FEC809334
:100B3000C400E1ECF0E0808188618083E2ECF0E0C9
:100B400080818660808308950C9494058091C00014
:100B500085FFFCCF6093C60008958091C00087FF99
:100B6000FCCF8091C60008950E9A8FEF84B98AB9A0
:100B70008FE991E00E942405109254018091540164
:100B8000823009F460C048F4882371F08130C1F7E5
:100B90000E94D3000E943B01F1CF833009F456C07C
:100BA000843009F453C0ECCF80914C018823F9F0D4
:100BB000809101018823D9F00E94780181EA91E0B7
:100BC0000E94E8046CE38FE991E00E9481052FEF19
:100BD0008DE399E4215080409040E1F700C000008F
:100BE00081EA91E00E94FF0410924C0127C080919D
:100BF0004D01882319F1809100018823F9F00E94AA
:100C0000780180915101811117C081EA91E00E9421
:100C1000EB046CE38FE991E00E947D052FEF89E6FC
:100C200098E1215080409040E1F700C0000081EA47
:100C300091E00E94FF04E5CF10924D010E94D30085
:100C40000E9401019BCF0E94D40198CF0E94D30043
:100C500095CF82EA91E00E94A40581EA91E00E948A
:100C6000E7048FE991E00E94010585E591E00C948D
:100C7000250285E591E00E942E028FE991E00C9417
:100C80001805AA1BBB1B51E107C0AA1FBB1FA61753
:100C9000B70710F0A61BB70B881F991F5A95A9F725
:100CA00080959095BC01CD01089597FB072E16F411
:100CB000009407D077FD09D00E94410607FC05D0BB
:100CC0003EF4909581959F4F0895709561957F4F63
:100CD0000895EE0FFF1F0590F491E02D09940E94F6
:100CE00083060C9464070E945D0758F00E94560723
:100CF00040F029F45F3F29F00C944D0751110C94FA
:100D000098070C9453070E94750768F39923B1F371
:100D1000552391F3951B550BBB27AA276217730721
:100D2000840738F09F5F5F4F220F331F441FAA1FB5
:100D3000A9F335D00E2E3AF0E0E832D09150504071
:100D4000E695001CCAF72BD0FE2F29D0660F771F1F
:100D5000881FBB1F261737074807AB07B0E809F005
:100D6000BB0B802DBF01FF2793585F4F3AF09E3F8A
:100D7000510578F00C944D070C9498075F3FE4F30D
:100D8000983ED4F3869577956795B795F7959F5FCD
:100D9000C9F7880F911D9695879597F90895E1E019
:100DA000660F771F881FBB1F621773078407BA0778
:100DB00020F0621B730B840BBA0BEE1F88F7E095D3
:100DC00008950E947D0788F09F5798F0B92F9927C2
:100DD000B751B0F0E1F0660F771F881F991F1AF026
:100DE000BA95C9F714C0B13091F00E949707B1E0ED
:100DF00008950C949707672F782F8827B85F39F0EC
:100E0000B93FCCF3869577956795B395D9F73EF4BE
:100E100090958095709561957F4F8F4F9F4F089566
:100E2000E89409C097FB3EF4909580957095619584
:100E30007F4F8F4F9F4F9923A9F0F92F96E9BB273A
:100E40009395F695879577956795B795F111F8CFB6
:100E5000FAF4BB0F11F460FF1BC06F5F7F4F8F4F21
:100E60009F4F16C0882311F096E911C0772321F017
:100E70009EE8872F762F05C0662371F096E8862FAF
:100E800070E060E02AF09A95660F771F881FDAF706
:100E9000880F9695879597F9089597F99F6780E849
:100EA00070E060E008959FEF80EC089500240A94BC
:100EB0001616170618060906089500240A94121635
:100EC0001306140605060895092E0394000C11F468
:100ED000882352F0BB0F40F4BF2B11F460FF04C015
:100EE0006F5F7F4F8F4F9F4F089557FD9058440F6E
:100EF000551F59F05F3F71F04795880F97FB991F79
:100F000061F09F3F79F08795089512161306140635
:100F1000551FF2CF4695F1DF08C0161617061806C2
:100F2000991FF1CF86957105610508940895E8949D
:100F3000BB2766277727CB0197F908950E94B10751
:100F40000C9464070E94560738F00E945D0720F059
:100F5000952311F00C944D070C94530711240C9415
:100F600098070E94750770F3959FC1F3950F50E0A5
:100F7000551F629FF001729FBB27F00DB11D639F4B
:100F8000AA27F00DB11DAA1F649F6627B00DA11DF1
:100F9000661F829F2227B00DA11D621F739FB00D97
:100FA000A11D621F839FA00D611D221F749F332707
:100FB000A00D611D231F849F600D211D822F762FA0
:100FC0006A2F11249F5750409AF0F1F088234AF07D
:100FD000EE0FFF1FBB1F661F771F881F91505040E9
:100FE000A9F79E3F510580F00C944D070C9498078B
:100FF0005F3FE4F3983ED4F3869577956795B79570
:10100000F795E7959F5FC1F7FE2B880F911D969589
:10101000879597F9089510E0CFE3D0E004C0FE0172
:101020000E9469062196C034D107C9F7F894FFCF12
:1010300004046E0074007B0082008A0092009B0012
:10104000A400AE00B800C300CF00DC00E900F60049
:10105000050115012501370149015D017101870174
:101060009F01B801D201ED010B022A024B026E0270
:0C1070009302BA02E3020F033E03700378
:00000001FF
