:100000000C9440000C9468000C9468000C946800F8
:100010000C9468000C9468000C9468000C946800C0
:100020000C9468000C9468000C9468000C946800B0
:100030000C9468000C9468000C9468000C946800A0
:100040000C9468000C9468000C9468000C94680090
:100050000C9468000C9468000C9468000C94680080
:100060000C9468000C9468000C9468000C94680070
:100070000C9468000C9468000C94680023052F050C
:1000800011241FBECFEFD8E0DEBFCDBF11E0A0E04E
:10009000B1E0ECE1FEE002C005900D92AA34B10798
:1000A000D9F721E0AAE4B1E001C01D92AD39B20751
:1000B000E1F710E0CFE3D0E004C02197FE010E94F9
:1000C0005F05CE33D107C9F70E940A050C940107DA
:1000D0000C940000009B18C081E080934E01019BAE
:1000E00018C081E080934D01029B18C081E080938D
:1000F0004C01039B18C081E080934B01049B18C006
:1001000081E080934A0108950099E9CF10924E0151
:10011000E6CF0199E9CF10924D01E6CF0299E9CFE0
:1001200010924C01E6CF0399E9CF10924B01E6CF34
:10013000049B10924A01089580914E0146E481117A
:1001400046C080914D014CE3811141C080914C012A
:1001500046E481110BC080914B0140E06CE38111BA
:1001600006C080914A0140E0882389F166E48AE96B
:1001700091E00E94A70480914C0190914E01992337
:1001800041F190914D01992321F18823F9F08AE9F9
:1001900091E00E94FA042FEF84E39CE0215080401C
:1001A0009040E1F700C000008CE991E00E946004FB
:1001B00066E48AE991E00E94F3042FEF89E698E172
:1001C000215080409040E1F700C00000089560E0B9
:1001D000CECF8823D9F380914B018823B9F3809146
:1001E0004A01882399F38AE991E00E94FA048CE994
:1001F00091E00E945D0466E48AE991E00E94F604C1
:10020000DCCF80914E0140E066E48823B1F080911C
:100210004D0140E06CE3882381F080914C0140E087
:10022000882351F080914B014CE3882329F0809181
:100230004A01811106C046E460E08AE991E00C942D
:10024000A7048AE991E00E94FA0480E591E00E9407
:10025000AF0180E591E00E944B012FEF89E698E124
:10026000215080409040E1F700C0000082E0809380
:100270004F010895DC018AE4E0E0F1E001900D9285
:100280008A95E1F70895089584B5826484BD85B5A3
:10029000846085BD089514B817BC16BC15BC0895BC
:1002A0001F93CF93DF9300D000D000D0CDB7DEB73F
:1002B0008D839E83262F2D52330BF901EE0FFF1FE6
:1002C0004D815E81E40FF51F808191819C0150E09A
:1002D00040E029833A834B835C83CA01B9010E94C1
:1002E00006069B01AC0160E070E080E89FE30E949D
:1002F000650520E030E040E05FE369837A838B832B
:100300009C8369817A818B819C810E94940620E084
:1003100034E244EF56E469837A838B839C8369815A
:100320007A818B819C810E94940669837A838B8376
:100330009C8369817A818B819C810E94D705162FCD
:100340008D819E810E94440117BD26960FB6F894B8
:10035000DEBF0FBECDBFDF91CF911F910895CF9328
:10036000DF93D82FC92F61E40E9450012FEF84E35F
:100370009CE0215080409040E1F700C0000061E423
:100380008D2F9C2F0E9450012FEF84E39CE0215081
:1003900080409040E1F700C00000DF91CF910895C8
:1003A000CF93DF93D82FC92F6AE40E9450012FE723
:1003B0008AE196E0215080409040E1F700C00000C3
:1003C0006AE48D2F9C2F0E9450012FE78AE196E06E
:1003D000215080409040E1F700C000006CE48D2F78
:1003E0009C2F0E9450012FE78AE196E02150804027
:1003F0009040E1F700C000006AE48D2F9C2F0E941E
:1004000050012FE78AE196E0215080409040E1F7CB
:1004100000C0000067E48D2F9C2F0E9450012FE741
:100420008AE196E0215080409040E1F700C0000052
:1004300064E48D2F9C2F0E9450012FE78AE196E003
:10044000215080409040E1F700C0000067E48D2F0C
:100450009C2F0E9450012FE78AE196E021508040B6
:100460009040E1F700C000006AE48D2F9C2F0E94AD
:1004700050012FE78AE196E0215080409040E1F75B
:1004800000C000006CE48D2F9C2F0E9450012FE7CC
:100490008AE196E0215080409040E1F700C00000E2
:1004A0006AE48D2F9C2F0E9450012FEF82E597E088
:1004B000215080409040E1F700C0000067E48D2F9C
:1004C0009C2F0E9450012FEF84E39CE0215080403C
:1004D0009040E1F700C000006AE48D2F9C2F0E943D
:1004E00050012FEF84E39CE0215080409040E1F7E1
:1004F00000C0000067E48D2F9C2F0E9450012FEF59
:1005000084E39CE0215080409040E1F700C000006F
:100510006AE48D2F9C2F0E9450012FEF84E39CE012
:10052000215080409040E1F700C0000067E48D2F2B
:100530009C2F0E9450012FE78AE196E021508040D5
:100540009040E1F700C000006FE48D2F9C2F0E94C7
:1005500050012FE78AE196E0215080409040E1F77A
:1005600000C000006FE48D2F9C2F0E9450012FE7E8
:100570008AE196E0215080409040E1F700C0000001
:1005800061E58D2F9C2F0E9450012FE78AE196E0B4
:10059000215080409040E1F700C000006FE48D2FB3
:1005A0009C2F0E9450012FE78AE196E02150804065
:1005B0009040E1F700C000006CE48D2F9C2F0E945A
:1005C00050012FE78AE196E0215080409040E1F70A
:1005D00000C0000068E48D2F9C2F0E9450012FE77F
:1005E0008AE196E0215080409040E1F700C0000091
:1005F0006CE48D2F9C2F0E9450012FE78AE196E03A
:10060000215080409040E1F700C000006FE48D2F42
:100610009C2F0E9450012FE78AE196E021508040F4
:100620009040E1F700C0000061E58D2F9C2F0E94F3
:1006300050012FE78AE196E0215080409040E1F799
:1006400000C000006FE48D2F9C2F0E9450012FEFFF
:1006500082E597E0215080409040E1F700C0000023
:100660006CE48D2F9C2F0E9450012FEF84E39CE0BF
:10067000215080409040E1F700C000006AE48D2FD7
:100680009C2F0E9450012FEF84E39CE0215080407A
:100690009040E1F700C0000067E48D2F9C2F0E947E
:1006A00050012FEF84E39CE0215080409040E1F71F
:1006B00000C000006AE48D2F9C2F0E9450012FEF94
:1006C00084E39CE0215080409040E1F700C00000AE
:1006D00067E48D2F9C2F0E9450012FEF82E597E059
:1006E000215080409040E1F700C000006FE48D2F62
:1006F0009C2F0E9450012FEF84E39CE0215080400A
:100700009040E1F700C000006CE48D2F9C2F0E9408
:1007100050012FEF84E39CE0215080409040E1F7AE
:1007200000C000006AE48D2F9C2F0E9450012FEF23
:1007300084E39CE0215080409040E1F700C000003D
:1007400067E48D2F9C2F0E9450012FEF84E39CE0E3
:10075000215080409040E1F700C000006FE48D2FF1
:100760009C2F0E9450012FEF84E39CE02150804099
:100770009040E1F700C000006CE48D2F9C2F0E9498
:1007800050012FEF84E39CE0215080409040E1F73E
:1007900000C000006AE48D2F9C2F0E9450012FEFB3
:1007A00084E39CE0215080409040E1F700C00000CD
:1007B00067E48D2F9C2F0E9450012FEF84E39CE073
:1007C000215080409040E1F700C000006FE48D2F81
:1007D0009C2F0E9450012FEF84E39CE02150804029
:1007E0009040E1F700C000006CE48D2F9C2F0E9428
:1007F00050012FEF84E39CE0215080409040E1F7CE
:1008000000C000006AE48D2F9C2F0E9450012FEF42
:1008100084E39CE0215080409040E1F700C000005C
:1008200067E48D2F9C2F0E9450012FEF84E39CE002
:10083000215080409040E1F700C000006AE48D2F15
:100840009C2F0E9450012FEF84E39CE021508040B8
:100850009040E1F700C000006CE48D2F9C2F0E94B7
:1008600050012FE784E89EE1215080409040E1F75D
:1008700000C000006EE48D2F9C2F0E9450012FEFCE
:1008800084E39CE0215080409040E1F700C00000EC
:100890006FE48D2F9C2F0E9450012FEF8EE994E280
:1008A000215080409040E1F700C000008D2F9C2F28
:1008B000DF91CF910C944B01089581E085B90895A3
:1008C00082E085B9089581E085B98FE19EE40197C2
:1008D000F1F700C0000082E085B98FE19EE4019746
:1008E000F1F700C00000089515B808950895CF935A
:1008F000FC01CFEF6C9FC00111242CE93FEFB9013F
:100900000E943705615060834C9FC0011124B901DA
:100910000E94370561506183CF91089508952FEFAC
:10092000629FC00111246CE97FEF0E9437058FEFB1
:10093000860F0895109285001092840081EF8093B5
:10094000800082E080938100109282000895CF930E
:10095000DF93FC0180E38BB93FEF639FC00111245B
:10096000CCE9DFEFBE010E9437052FEF260F208371
:10097000439FC0011124BE010E943705615061836D
:1009800030E030938B0020938A0070E070938900F0
:1009900060938800DF91CF910895CF93DF93FC019E
:1009A00080EF8BB93FEF639FC0011124CCE9DFEFEB
:1009B000BE010E9437052FEF260F2083439FC00101
:1009C0001124BE010E9437056150618370E070936D
:1009D00089006093880030E030938B0020938A0078
:1009E000DF91CF91089540E00C94A704462F60E07A
:1009F0000C94A704109280001092810010926E0057
:100A0000109289001092880010928B0010928A0038
:100A10001BB8089511B88FEF84B98AB987B98AE9EC
:100A200091E00E949A0480914F019FEF980F8823D4
:100A300029F09230E0F70E946A00F5CF0E946A0028
:100A40000E949C00F0CF8CE991E00E945C048AE94E
:100A500091E00E94760480E591E00C943A0180E5F3
:100A600091E00E9443018AE991E00C948E0497FB87
:100A7000072E16F4009407D077FD09D00E944B058D
:100A800007FC05D03EF4909581959F4F0895709591
:100A900061957F4F0895AA1BBB1B51E107C0AA1F98
:100AA000BB1FA617B70710F0A61BB70B881F991F0F
:100AB0005A95A9F780959095BC01CD010895EE0F48
:100AC000FF1F0590F491E02D09940E9479050C9484
:100AD0005A060E94530658F00E944C0640F029F432
:100AE0005F3F29F00C94430651110C948E060C9430
:100AF00049060E946B0668F39923B1F3552391F3DD
:100B0000951B550BBB27AA2762177307840738F07C
:100B10009F5F5F4F220F331F441FAA1FA9F335D0D9
:100B20000E2E3AF0E0E832D091505040E695001C8D
:100B3000CAF72BD0FE2F29D0660F771F881FBB1F47
:100B4000261737074807AB07B0E809F0BB0B802D25
:100B5000BF01FF2793585F4F3AF09E3F510578F051
:100B60000C9443060C948E065F3FE4F3983ED4F356
:100B7000869577956795B795F7959F5FC9F7880F25
:100B8000911D9695879597F90895E1E0660F771F77
:100B9000881FBB1F621773078407BA0720F0621B08
:100BA000730B840BBA0BEE1F88F7E09508950E9433
:100BB000730688F09F5798F0B92F9927B751B0F076
:100BC000E1F0660F771F881F991F1AF0BA95C9F7D1
:100BD00014C0B13091F00E948D06B1E008950C94DC
:100BE0008D06672F782F8827B85F39F0B93FCCF38F
:100BF000869577956795B395D9F73EF4909580954E
:100C0000709561957F4F8F4F9F4F0895E89409C06D
:100C100097FB3EF490958095709561957F4F8F4F2F
:100C20009F4F9923A9F0F92F96E9BB279395F69545
:100C3000879577956795B795F111F8CFFAF4BB0FC3
:100C400011F460FF1BC06F5F7F4F8F4F9F4F16C027
:100C5000882311F096E911C0772321F09EE8872FB1
:100C6000762F05C0662371F096E8862F70E060E06D
:100C70002AF09A95660F771F881FDAF7880F9695E6
:100C8000879597F9089597F99F6780E870E060E08D
:100C900008959FEF80EC089500240A941616170615
:100CA00018060906089500240A941216130614065D
:100CB00005060895092E0394000C11F4882352F0C0
:100CC000BB0F40F4BF2B11F460FF04C06F5F7F4F78
:100CD0008F4F9F4F089557FD9058440F551F59F05F
:100CE0005F3F71F04795880F97FB991F61F09F3F19
:100CF00079F087950895121613061406551FF2CF42
:100D00004695F1DF08C0161617061806991FF1CF91
:100D100086957105610508940895E894BB276627B8
:100D20007727CB0197F908950E94A7060C945A06DD
:100D30000E944C0638F00E94530620F0952311F0D3
:100D40000C9443060C94490611240C948E060E94C0
:100D50006B0670F3959FC1F3950F50E0551F629F8E
:100D6000F001729FBB27F00DB11D639FAA27F00D04
:100D7000B11DAA1F649F6627B00DA11D661F829F2B
:100D80002227B00DA11D621F739FB00DA11D621F10
:100D9000839FA00D611D221F749F3327A00D611D2D
:100DA000231F849F600D211D822F762F6A2F11240F
:100DB0009F5750409AF0F1F088234AF0EE0FFF1F42
:100DC000BB1F661F771F881F91505040A9F79E3F99
:100DD000510580F00C9443060C948E065F3FE4F3BB
:100DE000983ED4F3869577956795B795F795E795EF
:100DF0009F5FC1F7FE2B880F911D9695879597F9F8
:100E0000089510E0CFE3D0E004C0FE010E945F052A
:0C0E10002196C034D107C9F7F894FFCF39
:100E1C006E0074007B0082008A0092009B00A4008C
:100E2C00AE00B800C300CF00DC00E900F6000501FD
:100E3C0015012501370149015D01710187019F01F0
:100E4C00B801D201ED010B022A024B026E02930291
:0A0E5C00BA02E3020F033E03700325
:00000001FF
