:100000000C9440000C9468000C9468000C946800F8
:100010000C9468000C9468000C9468000C946800C0
:100020000C9468000C9468000C9468000C946800B0
:100030000C9468000C9468000C9468000C946800A0
:100040000C9468000C9468000C9468000C94680090
:100050000C9468000C9468000C9468000C94680080
:100060000C9468000C9468000C9468000C94680070
:100070000C9468000C9468000C9468000905150540
:1000800011241FBECFEFD8E0DEBFCDBF11E0A0E04E
:10009000B1E0E8EEFDE002C005900D92AA34B10790
:1000A000D9F721E0AAE4B1E001C01D92AD39B20751
:1000B000E1F710E0CFE3D0E004C02197FE010E94F9
:1000C0004505CE33D107C9F70E94EB040C94E7062F
:1000D0000C940000009B18C081E080934E01019BAE
:1000E00018C081E080934D01029B18C081E080938D
:1000F0004C01039B18C081E080934B01049B18C006
:1001000081E080934A0108950099E9CF10924E0151
:10011000E6CF0199E9CF10924D01E6CF0299E9CFE0
:1001200010924C01E6CF0399E9CF10924B01E6CF34
:10013000049B10924A01089580914E0146E481117A
:100140003FC080914D014CE381113AC080914C0138
:10015000882329F090914A0146E4992369F090910F
:100160004B0140E06CE3911108C090914A01992342
:1001700031F1811106C040E066E48AE991E00C9417
:1001800088048AE991E00E94DB042FEF89E698E178
:10019000215080409040E1F700C0000066E48AE909
:1001A00091E00E94D4042FEF89E698E1215080402D
:1001B0009040E1F700C0000010924F01089540E028
:1001C00060E0DBCF80914E0140E066E48823B1F02F
:1001D00080914D0140E06CE3882381F080914C01D7
:1001E00040E0882351F080914B014CE3882329F0B3
:1001F00080914A01811106C046E460E08AE991E0FD
:100200000C9488048AE991E00E94DB0480E591E087
:100210000E94900180E591E00E942C012FEF89E679
:1002200098E1215080409040E1F700C0000082E05A
:1002300080934F010895DC018AE4E0E0F1E0019051
:100240000D928A95E1F70895089584B5826484BD7E
:1002500085B5846085BD089514B817BC16BC15BC5F
:1002600008951F93CF93DF9300D000D000D0CDB777
:10027000DEB78D839E83262F2D52330BF901EE0FAF
:10028000FF1F4D815E81E40FF51F808191819C01EC
:1002900050E040E029833A834B835C83CA01B90173
:1002A0000E94EC059B01AC0160E070E080E89FE3F8
:1002B0000E944B0520E030E040E05FE369837A83F1
:1002C0008B839C8369817A818B819C810E947A06D1
:1002D00020E034E244EF56E469837A838B839C8385
:1002E00069817A818B819C810E947A0669837A83F5
:1002F0008B839C8369817A818B819C810E94BD055F
:10030000162F8D819E810E94250117BD26960FB65E
:10031000F894DEBF0FBECDBFDF91CF911F9108953E
:10032000CF93DF93D82FC92F61E40E9431012FEFC3
:1003300084E39CE0215080409040E1F700C0000041
:1003400061E48D2F9C2F0E9431012FEF84E39CE00C
:10035000215080409040E1F700C00000DF91CF9134
:100360000895CF93DF93D82FC92F6AE40E943101FB
:100370002FE78AE196E0215080409040E1F700C0ED
:1003800000006AE48D2F9C2F0E9431012FE78AE143
:1003900096E0215080409040E1F700C000006CE4FE
:1003A0008D2F9C2F0E9431012FE78AE196E021508A
:1003B00080409040E1F700C000006AE48D2F9C2F40
:1003C0000E9431012FE78AE196E021508040904061
:1003D000E1F700C0000067E48D2F9C2F0E943101DF
:1003E0002FE78AE196E0215080409040E1F700C07D
:1003F000000064E48D2F9C2F0E9431012FE78AE1D9
:1004000096E0215080409040E1F700C0000067E492
:100410008D2F9C2F0E9431012FE78AE196E0215019
:1004200080409040E1F700C000006AE48D2F9C2FCF
:100430000E9431012FE78AE196E0215080409040F0
:10044000E1F700C000006CE48D2F9C2F0E94310169
:100450002FE78AE196E0215080409040E1F700C00C
:1004600000006AE48D2F9C2F0E9431012FEF82E55E
:1004700097E0215080409040E1F700C0000067E421
:100480008D2F9C2F0E9431012FEF84E39CE021509F
:1004900080409040E1F700C000006AE48D2F9C2F5F
:1004A0000E9431012FEF84E39CE021508040904076
:1004B000E1F700C0000067E48D2F9C2F0E943101FE
:1004C0002FEF84E39CE0215080409040E1F700C092
:1004D00000006AE48D2F9C2F0E9431012FEF84E3EE
:1004E0009CE0215080409040E1F700C0000067E4AC
:1004F0008D2F9C2F0E9431012FE78AE196E0215039
:1005000080409040E1F700C000006FE48D2F9C2FE9
:100510000E9431012FE78AE196E02150804090400F
:10052000E1F700C000006FE48D2F9C2F0E94310185
:100530002FE78AE196E0215080409040E1F700C02B
:10054000000061E58D2F9C2F0E9431012FE78AE189
:1005500096E0215080409040E1F700C000006FE439
:100560008D2F9C2F0E9431012FE78AE196E02150C8
:1005700080409040E1F700C000006CE48D2F9C2F7C
:100580000E9431012FE78AE196E02150804090409F
:10059000E1F700C0000068E48D2F9C2F0E9431011C
:1005A0002FE78AE196E0215080409040E1F700C0BB
:1005B00000006CE48D2F9C2F0E9431012FE78AE10F
:1005C00096E0215080409040E1F700C000006FE4C9
:1005D0008D2F9C2F0E9431012FE78AE196E0215058
:1005E00080409040E1F700C0000061E58D2F9C2F16
:1005F0000E9431012FE78AE196E02150804090402F
:10060000E1F700C000006FE48D2F9C2F0E943101A4
:100610002FEF82E597E0215080409040E1F700C045
:1006200000006CE48D2F9C2F0E9431012FEF84E39A
:100630009CE0215080409040E1F700C000006AE457
:100640008D2F9C2F0E9431012FEF84E39CE02150DD
:1006500080409040E1F700C0000067E48D2F9C2FA0
:100660000E9431012FEF84E39CE0215080409040B4
:10067000E1F700C000006AE48D2F9C2F0E94310139
:100680002FEF84E39CE0215080409040E1F700C0D0
:10069000000067E48D2F9C2F0E9431012FEF82E52F
:1006A00097E0215080409040E1F700C000006FE4E7
:1006B0008D2F9C2F0E9431012FEF84E39CE021506D
:1006C00080409040E1F700C000006CE48D2F9C2F2B
:1006D0000E9431012FEF84E39CE021508040904044
:1006E000E1F700C000006AE48D2F9C2F0E943101C9
:1006F0002FEF84E39CE0215080409040E1F700C060
:10070000000067E48D2F9C2F0E9431012FEF84E3BE
:100710009CE0215080409040E1F700C000006FE471
:100720008D2F9C2F0E9431012FEF84E39CE02150FC
:1007300080409040E1F700C000006CE48D2F9C2FBA
:100740000E9431012FEF84E39CE0215080409040D3
:10075000E1F700C000006AE48D2F9C2F0E94310158
:100760002FEF84E39CE0215080409040E1F700C0EF
:10077000000067E48D2F9C2F0E9431012FEF84E34E
:100780009CE0215080409040E1F700C000006FE401
:100790008D2F9C2F0E9431012FEF84E39CE021508C
:1007A00080409040E1F700C000006CE48D2F9C2F4A
:1007B0000E9431012FEF84E39CE021508040904063
:1007C000E1F700C000006AE48D2F9C2F0E943101E8
:1007D0002FEF84E39CE0215080409040E1F700C07F
:1007E000000067E48D2F9C2F0E9431012FEF84E3DE
:1007F0009CE0215080409040E1F700C000006AE496
:100800008D2F9C2F0E9431012FEF84E39CE021501B
:1008100080409040E1F700C000006CE48D2F9C2FD9
:100820000E9431012FE784E89EE1215080409040F2
:10083000E1F700C000006EE48D2F9C2F0E94310173
:100840002FEF84E39CE0215080409040E1F700C00E
:1008500000006FE48D2F9C2F0E9431012FEF8EE955
:1008600094E2215080409040E1F700C000008D2FBD
:100870009C2FDF91CF910C942C01089581E085B9D4
:10088000089582E085B9089581E085B98FE19EE4FD
:100890000197F1F700C0000082E085B98FE19EE486
:1008A0000197F1F700C00000089515B80895089564
:1008B000CF93FC01CFEF6C9FC00111242CE93FEFD7
:1008C000B9010E941D05615060834C9FC001112435
:1008D000B9010E941D0561506183CF91089508956B
:1008E0002FEF629FC00111246CE97FEF0E941D056C
:1008F0008FEF860F0895109285001092840081EF8B
:100900008093800082E0809381001092820008959D
:10091000CF93DF93FC0180E38BB93FEF639FC0016E
:100920001124CCE9DFEFBE010E941D052FEF260F39
:100930002083439FC0011124BE010E941D05615008
:10094000618330E030938B0020938A0070E07093D5
:10095000890060938800DF91CF910895CF93DF9352
:10096000FC0180EF8BB93FEF639FC0011124CCE9FC
:10097000DFEFBE010E941D052FEF260F2083439F4E
:10098000C0011124BE010E941D056150618370E009
:10099000709389006093880030E030938B0020933F
:1009A0008A00DF91CF91089540E00C948804462F8F
:1009B00060E00C94880410928000109281001092E4
:1009C0006E00109289001092880010928B00109295
:1009D0008A001BB8089511B88FEF84B98AB987B916
:1009E0008AE991E00E947B0480914F01813049F0B7
:1009F000823061F08111FACF0E946A000E949C004F
:100A0000F3CF0E946A000E94E200EECF0E946A00CB
:100A1000EBCF8CE991E00E943D048AE991E00E94CD
:100A2000570480E591E00C941B0180E591E00E9461
:100A300024018AE991E00C946F0497FB072E16F4C9
:100A4000009407D077FD09D00E94310507FC05D03E
:100A50003EF4909581959F4F0895709561957F4FD5
:100A60000895AA1BBB1B51E107C0AA1FBB1FA617F5
:100A7000B70710F0A61BB70B881F991F5A95A9F747
:100A800080959095BC01CD010895EE0FFF1F059054
:100A9000F491E02D09940E945F050C9440060E9499
:100AA000390658F00E94320640F029F45F3F29F0E1
:100AB0000C94290651110C9474060C942F060E9474
:100AC000510668F39923B1F3552391F3951B550B08
:100AD000BB27AA2762177307840738F09F5F5F4F11
:100AE000220F331F441FAA1FA9F335D00E2E3AF050
:100AF000E0E832D091505040E695001CCAF72BD068
:100B0000FE2F29D0660F771F881FBB1F26173707B8
:100B10004807AB07B0E809F0BB0B802DBF01FF27EA
:100B200093585F4F3AF09E3F510578F00C94290698
:100B30000C9474065F3FE4F3983ED4F38695779562
:100B40006795B795F7959F5FC9F7880F911D9695A3
:100B5000879597F90895E1E0660F771F881FBB1FFF
:100B6000621773078407BA0720F0621B730B840BAC
:100B7000BA0BEE1F88F7E09508950E94590688F099
:100B80009F5798F0B92F9927B751B0F0E1F0660F51
:100B9000771F881F991F1AF0BA95C9F714C0B13092
:100BA00091F00E947306B1E008950C947306672FCC
:100BB000782F8827B85F39F0B93FCCF386957795C1
:100BC0006795B395D9F73EF49095809570956195AA
:100BD0007F4F8F4F9F4F0895E89409C097FB3EF4D5
:100BE00090958095709561957F4F8F4F9F4F99237A
:100BF000A9F0F92F96E9BB279395F69587957795F8
:100C00006795B795F111F8CFFAF4BB0F11F460FFB7
:100C10001BC06F5F7F4F8F4F9F4F16C0882311F00F
:100C200096E911C0772321F09EE8872F762F05C023
:100C3000662371F096E8862F70E060E02AF09A95BE
:100C4000660F771F881FDAF7880F9695879597F9B3
:100C5000089597F99F6780E870E060E008959FEF3E
:100C600080EC089500240A94161617061806090643
:100C7000089500240A941216130614060506089512
:100C8000092E0394000C11F4882352F0BB0F40F49A
:100C9000BF2B11F460FF04C06F5F7F4F8F4F9F4FDA
:100CA000089557FD9058440F551F59F05F3F71F05C
:100CB0004795880F97FB991F61F09F3F79F08795C3
:100CC0000895121613061406551FF2CF4695F1DF4C
:100CD00008C0161617061806991FF1CF86957105DC
:100CE000610508940895E894BB2766277727CB0110
:100CF00097F908950E948D060C9440060E943206D2
:100D000038F00E94390620F0952311F00C94290642
:100D10000C942F0611240C9474060E94510670F353
:100D2000959FC1F3950F50E0551F629FF001729F90
:100D3000BB27F00DB11D639FAA27F00DB11DAA1F9F
:100D4000649F6627B00DA11D661F829F2227B00DEC
:100D5000A11D621F739FB00DA11D621F839FA00D77
:100D6000611D221F749F3327A00D611D231F849FC7
:100D7000600D211D822F762F6A2F11249F5750401E
:100D80009AF0F1F088234AF0EE0FFF1FBB1F661F99
:100D9000771F881F91505040A9F79E3F510580F062
:100DA0000C9429060C9474065F3FE4F3983ED4F348
:100DB000869577956795B795F795E7959F5FC1F706
:100DC000FE2B880F911D9695879597F9089510E051
:100DD000CFE3D0E004C0FE010E9445052196C03457
:080DE000D107C9F7F894FFCF19
:100DE8006E0074007B0082008A0092009B00A400C1
:100DF800AE00B800C300CF00DC00E900F600050132
:100E080015012501370149015D01710187019F0124
:100E1800B801D201ED010B022A024B026E029302C5
:0A0E2800BA02E3020F033E03700359
:00000001FF
