:100000000C9440000C9468000C9468000C946800F8
:100010000C9468000C9468000C9468000C946800C0
:100020000C9468000C9468000C9468000C946800B0
:100030000C9468000C9468000C9468000C946800A0
:100040000C9468000C9468000C9468000C94680090
:100050000C9468000C9468000C9468000C94680080
:100060000C9468000C9468000C9468000C94680070
:100070000C9468000C9468000C946800490B650BA4
:1000800011241FBECFEFD8E0DEBFCDBF11E0A0E04E
:10009000B1E0EEEAF2E202C005900D92A238B1079B
:1000A000D9F721E0A2E8B1E001C01D92AC3EB20751
:1000B000E1F710E0CFE3D0E004C02197FE010E94F9
:1000C0009D0BCE33D107C9F70E94B10A0C944A1197
:1000D0000C9400008BED91E00E9499062FEF84E3D1
:1000E0009CE0215080409040E1F700C000008BED83
:1000F00091E00E94AD062FEF84E39CE02150804008
:100100009040E1F700C000008BED91E00E9499065D
:100110002FEF84E39CE0215080409040E1F700C045
:1001200000008BED91E00E94AD062FEF84E39CE090
:10013000215080409040E1F700C000008BED91E03D
:100140000E9496062FEF84E39CE02150804090406F
:10015000E1F700C000008BED91E00E94AD062FEFAB
:1001600084E39CE0215080409040E1F700C0000013
:100170008BED91E00E9496062FEF84E39CE02150E6
:1001800080409040E1F700C000008BED91E00E94BC
:10019000AD062FEF84E39CE0215080409040E1F7D2
:1001A00000C000000895009B04C081E080938E0190
:1001B00003C0009B10928E01019B04C081E08093DC
:1001C0008D0103C0019B10928D01029B04C081E050
:1001D00080938C0103C0029B10928C01039B04C08E
:1001E00081E080938B0103C0039B10928B01049BE1
:1001F00004C081E080938A010895049B10928A01D3
:10020000089580918E0190918C01882351F0209166
:100210008D01222331F0992391F081E080938801B0
:100220000895992361F080918B01882369F0809172
:100230008A01882349F081E0809387010895909195
:100240008D01911109C002C04CE309C090918B014E
:10025000911104C0882329F04CE308C040E06CE30E
:1002600006C080918A018111F9CF40E060E089EDFC
:1002700091E00C94270780918A01811105C080913B
:100280008E01882321F007C04CE360E016C0809106
:100290008D01882311F040E00FC080918C018823EC
:1002A00051F040E060E089ED91E00E94270781E095
:1002B0008093020108954CE36CE389ED91E00C9486
:1002C00027074CE36CE389ED91E00E9427072FEFAD
:1002D00084E39CE0215080409040E1F700C00000A2
:1002E00040E060E089ED91E00E9427072FEF89E66A
:1002F00098E1215080409040E1F700C0000008954F
:100300000E9461010E94D30080918C01811108C07C
:1003100080918B01811104C080918A01882339F07A
:100320008BED91E00E9499061092870108958BED64
:1003300091E00E94960668E289ED91E00E949107A3
:10034000E1CF823711F40C9480018C36E9F40E94DD
:1003500061010E94D30080918E01811108C08091BB
:100360008D01811104C080918C01882339F08BEDBF
:1003700091E00E94990610928801089568E289ED43
:1003800091E00E947607E5CF0895169A88E28A9553
:10039000F1F716980895079BFECF80E090E0079B49
:1003A00004C000C000C00196FACF6AE370E00E946A
:1003B000750B60938901089589ED91E00E941A07F9
:1003C0000E94C5010E94CB012FE788E391E02150F4
:1003D00080409040E1F700C00000609189018CED01
:1003E00091E00E94AD09809189018A3020F08091CE
:1003F0008901853168F0809189018C3010F440E0EA
:1004000008C080918901833148F04CE360E002C06C
:100410004CE36CE389ED91E00C94270708958BED94
:1004200091E00E94990620918E0180918D0190911A
:100430008C01222319F0811103C004C0882369F0C4
:10044000911113C0222349F0882309F442C0992353
:1004500021F030918B01311108C08823D1F199230B
:10046000E1F130918B013323A1F12FEF82E597E089
:10047000215080409040E1F700C0000090918E0133
:1004800080918D01992319F0811103C006C0882342
:1004900081F020918C01211116C0992351F08823FD
:1004A000B1F190918C01992321F090918B019111E0
:1004B0000AC0882361F180918C01882341F18091E9
:1004C0008B01882321F1809183018F5F80938301C9
:1004D0000895992311F04CE30CC090918B0199235E
:1004E00019F040E068E20FC090918A01992319F059
:1004F00040E06CE308C0211102C0882311F04CE3F6
:1005000001C040E060E089ED91E00C942707089578
:100510008BED91E00E94960680918E0190918D0165
:10052000882371F09923E1F020918C01222341F07E
:1005300020918B01222321F020918A0121110AC0F0
:10054000992371F020918C01222351F080918B012D
:10055000882391F01092860181E0809385010895AF
:1005600020918B01222369F030918C01332349F0D3
:10057000992339F1882359F00E9461018CE60C948B
:10058000A101882311F04CE317C0992311F048E230
:1005900013C0222319F040E068E20FC080918A0165
:1005A000882311F040E005C080918C01882319F068
:1005B0004CE36CE302C040E060E089ED91E00C9414
:1005C0002707882341F3DFCF8BED91E00E949C0643
:1005D00080918E0190918D0120918C0130918A0142
:1005E000882359F0992349F0222339F040918B0157
:1005F000442319F0332381F00AC0332369F099238F
:1006000059F0222339F040918B01442351F110928B
:100610008501089581110BC0992339F0222339F007
:100620000E9461018CE60C94A101211107C0209168
:100630008B01222351F040E068E20BC04CE303C081
:1006400040E0332329F06CE304C0992331F048E201
:1006500060E089ED91E00C942707882389F34CE34F
:10066000F7CF8111DDCFD8CF20918E0180918D0100
:1006700090918C01222319F0811103C004C08823BA
:1006800061F0911112C0222341F08823E9F19923EE
:1006900021F020918B01211108C08823A9F1992311
:1006A000B9F180918B018823C9F12FEF82E597E0A2
:1006B000215080409040E1F700C0000020918E0161
:1006C00080918D0190918C01222319F0811103C03A
:1006D00004C0882361F0911112C0222341F08823C5
:1006E00099F0992321F020918B01211108C08823D2
:1006F00059F0992369F080918B01882379F08091DA
:1007000082018F5F8093820180918C01811106C0EC
:1007100080918A01882329F040E001C04CE36CE31A
:1007200015C080918B01882319F040E068E20EC06B
:1007300080918E01882311F04CE307C080918D01D8
:10074000882311F048E201C040E060E089ED91E0CB
:100750000C942707FC01108208950895FC0189B1CB
:10076000982F947082FF0CC08FE19EE40197F1F7FF
:1007700000C000004A9B06C081E0808391E003C076
:10078000108201C00895892F0895FC018081089589
:10079000FC01608308950E94AE0391E0811101C0C5
:1007A00090E0892F0895DC019AE4E9E0F1E00190FE
:1007B0000D929A95E1F70895089584B5826484BDF9
:1007C00085B5846085BD089514B817BC16BC15BCEA
:1007D00008951F93CF93DF93EC01E62FF0E0BD97D0
:1007E000EE0FFF1FEC0FFD1F6081718180E090E034
:1007F0000E94440C9B01AC0160E070E080E89FE344
:100800000E94A30B20E030E040E05FE30E94D20CA6
:1008100020E034E244EF56E40E94D20C0E94150C12
:10082000162FCE010E94DD0317BDDF91CF911F91DE
:100830000895CF93DF93EC0161E40E94E9032FEF69
:1008400084E39CE0215080409040E1F700C000002C
:1008500061E4CE010E94E9032FEF84E39CE0215084
:1008600080409040E1F700C00000DF91CF910895F3
:10087000CF93DF93EC016AE40E94E9032FE78AE15A
:1008800096E0215080409040E1F700C000006AE40B
:10089000CE010E94E9032FE78AE196E021508040D3
:1008A0009040E1F700C000006CE4CE010E94E90333
:1008B0002FE78AE196E0215080409040E1F700C0A8
:1008C00000006AE4CE010E94E9032FE78AE196E086
:1008D000215080409040E1F700C0000067E4CE0165
:1008E0000E94E9032FE78AE196E021508040904082
:1008F000E1F700C0000064E4CE010E94E9032FE7A5
:100900008AE196E0215080409040E1F700C000006D
:1009100067E4CE010E94E9032FE78AE196E02150C7
:1009200080409040E1F700C000006AE4CE010E94E0
:10093000E9032FE78AE196E0215080409040E1F7FB
:1009400000C000006CE4CE010E94E9032FE78AE1B9
:1009500096E0215080409040E1F700C000006AE43A
:10096000CE010E94E9032FEF82E597E021508040FD
:100970009040E1F700C0000067E4CE010E94E90367
:100980002FEF84E39CE0215080409040E1F700C0CD
:1009900000006AE4CE010E94E9032FEF84E39CE0AB
:1009A000215080409040E1F700C0000067E4CE0194
:1009B0000E94E9032FEF84E39CE0215080409040A7
:1009C000E1F700C000006AE4CE010E94E9032FEFC6
:1009D00084E39CE0215080409040E1F700C000009B
:1009E00067E4CE010E94E9032FE78AE196E02150F7
:1009F00080409040E1F700C000006FE4CE010E940B
:100A0000E9032FE78AE196E0215080409040E1F72A
:100A100000C000006FE4CE010E94E9032FE78AE1E5
:100A200096E0215080409040E1F700C0000061E571
:100A3000CE010E94E9032FE78AE196E02150804031
:100A40009040E1F700C000006FE4CE010E94E9038E
:100A50002FE78AE196E0215080409040E1F700C006
:100A600000006CE4CE010E94E9032FE78AE196E0E2
:100A7000215080409040E1F700C0000068E4CE01C2
:100A80000E94E9032FE78AE196E0215080409040E0
:100A9000E1F700C000006CE4CE010E94E9032FE7FB
:100AA0008AE196E0215080409040E1F700C00000CC
:100AB0006FE4CE010E94E9032FE78AE196E021501E
:100AC00080409040E1F700C0000061E5CE010E9447
:100AD000E9032FE78AE196E0215080409040E1F75A
:100AE00000C000006FE4CE010E94E9032FEF82E511
:100AF00097E0215080409040E1F700C000006CE496
:100B0000CE010E94E9032FEF84E39CE02150804056
:100B10009040E1F700C000006AE4CE010E94E903C2
:100B20002FEF84E39CE0215080409040E1F700C02B
:100B3000000067E4CE010E94E9032FEF84E39CE00C
:100B4000215080409040E1F700C000006AE4CE01EF
:100B50000E94E9032FEF84E39CE021508040904005
:100B6000E1F700C0000067E4CE010E94E9032FEF27
:100B700082E597E0215080409040E1F700C00000FE
:100B80006FE4CE010E94E9032FEF84E39CE0215043
:100B900080409040E1F700C000006CE4CE010E946C
:100BA000E9032FEF84E39CE0215080409040E1F77F
:100BB00000C000006AE4CE010E94E9032FEF84E345
:100BC0009CE0215080409040E1F700C0000067E4C5
:100BD000CE010E94E9032FEF84E39CE02150804086
:100BE0009040E1F700C000006FE4CE010E94E903ED
:100BF0002FEF84E39CE0215080409040E1F700C05B
:100C000000006CE4CE010E94E9032FEF84E39CE036
:100C1000215080409040E1F700C000006AE4CE011E
:100C20000E94E9032FEF84E39CE021508040904034
:100C3000E1F700C0000067E4CE010E94E9032FEF56
:100C400084E39CE0215080409040E1F700C0000028
:100C50006FE4CE010E94E9032FEF84E39CE0215072
:100C600080409040E1F700C000006CE4CE010E949B
:100C7000E9032FEF84E39CE0215080409040E1F7AE
:100C800000C000006AE4CE010E94E9032FEF84E374
:100C90009CE0215080409040E1F700C0000067E4F4
:100CA000CE010E94E9032FEF84E39CE021508040B5
:100CB0009040E1F700C000006AE4CE010E94E90321
:100CC0002FEF84E39CE0215080409040E1F700C08A
:100CD00000006CE4CE010E94E9032FE784E89EE166
:100CE000215080409040E1F700C000006EE4CE014A
:100CF0000E94E9032FEF84E39CE021508040904064
:100D0000E1F700C000006FE4CE010E94E9032FEF7D
:100D10008EE994E2215080409040E1F700C000004D
:100D2000CE01DF91CF910C94E403089581E085B961
:100D3000089582E085B9089581E085B98FE19EE448
:100D40000197F1F700C0000082E085B98FE19EE4D1
:100D50000197F1F700C00000089515B80895FC014F
:100D600031969F01281B390B41914111FACFC901DE
:100D700008950F931F93CF93DF93FC01CB01178648
:100D8000009739F08F01015F1F4F2EE0C42FD0E094
:100D900007C080E38687CF010E9615C0222371F02D
:100DA000BE010E94750BDC01A959BE4F8C91D80180
:100DB0008E938D012150CB01009781F7822F90E017
:100DC00001968E0F9F1FDF91CF911F910F91089574
:100DD00020E030E02817390749F0EFECF7E03197D1
:100DE000F1F700C000002F5F3F4FF4CF0895089542
:100DF000FC012FEF629FC00111242CE93FEFB901E4
:100E00000E94890B615060835FEF459FC0011124F0
:100E1000B9010E94890B61506183089508952FEFF5
:100E2000629FC00111246CE97FEF0E94890B8FEF54
:100E3000860F0895109285001092840081EF8093B0
:100E4000800082E080938100109282000895CF9309
:100E5000DF93FC0180E38BB98BB18BB92FEF629FDD
:100E6000C0011124CCE9DFEFBE010E94890B2FEFF6
:100E7000260F20833FEF439FC0011124BE010E9433
:100E8000890B61506183622F70E070938B006093D7
:100E90008A00818190E09093890080938800DF919F
:100EA000CF910895FC011BB880EF8BB92FEF629FA3
:100EB000C00111242CE93FEFB9010E94890B615058
:100EC00060835FEF459FC0011124B9010E94890B27
:100ED0006150618370E07093890060938800808125
:100EE00090E090938B0080938A000895FC011BB8DA
:100EF00080E78BB92FEF629FC00111246CE97FEF6F
:100F00000E94890B61506083618370E070938B0055
:100F100060938A00818190E090938900809388009B
:100F20000895FC011BB88BB1806B8BB92FEF629FCA
:100F3000C00111246CE97FEF0E94890B615060832E
:100F4000618370E070938B0060938A00818190E0F0
:100F500090938900809388000895109280001092E9
:100F6000810010926E0010928900109288001092F9
:100F70008B0010928A000895CF93DF93EC01CB0190
:100F8000188219821A821B825D834C831886198607
:100F9000BA010E94560A4C815D8160E081E00E94A6
:100FA0000E0A80E190E00E943F0D9F838E83DF91C7
:100FB000CF910895FC01868197810C94D70D1F93E2
:100FC000CF93DF93EC01162F2C813D81462F6B814F
:100FD00081E00E94160A1A83DF91CF911F91089534
:100FE0001F93CF93DF93EC01162F2C813D814A8113
:100FF00081E00E94160A1B83DF91CF911F91089513
:10100000FC01862F603240F46183648175818031F8
:1010100008F0805D0C94490A0895CF93DF93EC01AA
:101020008C819D810E94020A18826981CE01DF9124
:10103000CF910C9400086F927F928F929F92AF9203
:10104000BF92CF92DF92EF92FF920F931F93CF93B5
:10105000DF936115710509F476C0E22EF42E8B0141
:10106000EC01CB010E94AF066C017A808B8060E0BE
:10107000CE010E94DF0760E0CE010E94F007EE2063
:1010800019F0CE010E940D082FE12F1508F45BC066
:101090004F2D50E0C601992720E230E0241B350B8C
:1010A000281739070CF44FC09C2C6C817D81EFE030
:1010B000EF1548F1840F951F409724F080E1E82E4A
:1010C000EF1801C0EC2C8F2D0E94490A602E5801A8
:1010D0006C817D818A2D86198E1530F4F501819100
:1010E0005F010E94500AF4CF80E40E94490AE9148B
:1010F000E0F46C817D81F801EE0DF11D80810E948C
:10110000500AE394F4CF80E38F0D0E94490AE02E49
:1011100058018A2D8E19891540F46C817D81F50165
:1011200081915F010E94500AF4CF6981CE010E9433
:101130000008672DCE010E94DF07682DCE010E94B6
:10114000F007FC0CF882DF91CF911F910F91FF9077
:10115000EF90DF90CF90BF90AF909F908F907F9057
:101160006F900895EF92FF920F931F93CF93DF93A9
:101170008C016830D0F441155105B9F0EA01862F91
:10118000F80164817581880F880F880F0E94410AD9
:101190007E01F8E0EF0EF11CF80164817581899100
:1011A0000E94500ACE15DF05B9F7DF91CF911F914C
:1011B0000F91FF90EF900895CF93DF93EC016115AD
:1011C000710521F020E048810E941B08CE01DF91CB
:1011D000CF9108950F931F93CF93DF9300D0CDB796
:1011E000DEB78C011A8219826983BE016F5F7F4F5F
:1011F0000E94DC08C8010F900F90DF91CF911F91E2
:101200000F910895CF93DF93EC017F936F9388E75D
:1012100091E09F938F938F818F938E818F930E9404
:10122000600E6E817F81CE010E94DC080F900F90CE
:101230000F900F900F900F90CE01DF91CF910895F6
:10124000CF93DF93EC017F936F938BE791E09F93B4
:101250008F938F818F938E818F930E94600E6E810A
:101260007F81CE010E94DC080F900F900F900F90AD
:101270000F900F90CE01DF91CF910895CF93DF9320
:10128000EC011F926F938EE791E09F938F938F8174
:101290008F938E818F930E94600E6E817F81CE012D
:1012A0000E94DC080F900F900F900F900F900F90FE
:1012B000CE01DF91CF9108950F931F93CF93DF93CA
:1012C000EC018B016115710561F0288581E028270B
:1012D0004985CE010E941B088885882311F0188655
:1012E0001986C801DF91CF911F910F910895603247
:1012F00020F4FC01618721E0208708950F931F935C
:10130000CF93DF93EC018881082F681708F4062F2C
:10131000801B888310E0101731F060E2CE010E943C
:10132000EA081F5FF8CF8881811B8883DF91CF9106
:101330001F910F9108951092C5008FEC8093C40007
:10134000E1ECF0E0808188618083E2ECF0E0808174
:101350008660808308950C949B098091C00085FF6E
:10136000FCCF6093C60008958091C00087FFFCCF3A
:101370008091C6000895FC0180818062808384E0B2
:101380008A95F1F780818F7D80830895EF92FF9297
:101390000F931F93CF93DF93162F042FE90190E84B
:1013A000899F700111248881817288832881862F0A
:1013B00090E034E0959587953A95E1F7880F991F6D
:1013C0008E29822B8883CE010E94BB09888181727D
:1013D000888388811F70110F1E29182B1883CE0156
:1013E0000E94BB0980E0801731F09AE19A95F1F7ED
:1013F00000C08F5FF8CFDF91CF911F910F91FF90C9
:10140000EF9008959C0144EA61E080E00C94C609E5
:101410009C0144EA62E080E00C94C6099A01880FBE
:101420006460682B44E080E00C94C609660F486055
:10143000462B54E0859FC0011124642F682B44E0A3
:1014400080E00C94C6099A0144E0649FB001112425
:10145000606148E0849FC0011124682B44E080E073
:101460000C94C6099A0148E0649FB001112460629F
:1014700040E1849FC0011124682B44E080E00C947B
:10148000C6099B018F77682F606444E080E00C946C
:10149000C6099B01682F606844E080E00C94C6098F
:1014A0009B0144E0682F81E00C94C609CF93DF9341
:1014B000FC01EB018FE295E70197F1F700C0000016
:1014C00080818172808380818FEF808388818172A7
:1014D000888388818660888388818E7F8883CB011A
:1014E0000E94BB0987E090E20197F1F700C000007D
:1014F000CE010E94BB0987EC90E00197F1F700C094
:101500000000CE010E94BB099AE69A95F1F700C04F
:10151000888181728883888184608883CE010E945B
:10152000BB098AE68A95F1F700C09E0144E06CE2AF
:1015300080E00E94C6099E0140E060E080E00E94D9
:10154000160ACE010E94020AAE0160E081E00E940C
:101550000E0A9E0140E060E081E0DF91CF910C94A3
:10156000160A0E9A8FEF84B981E18AB989ED91E06C
:101570000E941A071092020120E040E063E571E04A
:101580008EED91E00E941B0880ED97E00E94E80636
:10159000C1E0809102018230C9F128F4882359F01A
:1015A0008130C9F0F8CF8430C9F1A8F1853099F7BE
:1015B000C093840144C08DED91E00E94CB03882349
:1015C00029F08BED91E00E949606E3CF8BED91E040
:1015D0000E94AD06DECF80918701882339F080918B
:1015E0000101882319F00E9480010BC080918801BD
:1015F000882339F080910001882319F08CE60E943D
:10160000A1010E94D3000E940101C3CF0E94D30018
:101610000E943B01BECF0E94DC01BBCF0E94D300E1
:10162000B8CF0E94D3000E940F02809183018330C3
:1016300031F41092830110928401C093860180914D
:1016400084018111EECF0E9461012FEF80E792E0CB
:10165000215080409040E1F700C000008CE60E94DD
:10166000A10180918601882329F00E94D3000E9465
:101670008802F7CF0E9461018CE60E94A10180914F
:101680008501882309F485CF0E94D3000E94E402DB
:10169000F6CF48E250E067E270E08EED91E00E9404
:1016A000BC078DED91E00E94AA038CED91E00E94B1
:1016B000AB098BED91E00E94950689ED91E00E94C7
:1016C000F7068FE891E00C94D3038FE891E00E9435
:1016D000DC0389ED91E00E940E078DED91E00E9400
:1016E000AD038EED91E00C94DA07AA1BBB1B51E110
:1016F00007C0AA1FBB1FA617B70710F0A61BB70B82
:10170000881F991F5A95A9F780959095BC01CD0126
:10171000089597FB072E16F4009407D077FD09D0A3
:101720000E94750B07FC05D03EF4909581959F4F64
:101730000895709561957F4F0895EE0FFF1F0590F6
:10174000F491E02D09940E94B70B0C94980C0E9420
:10175000910C58F00E948A0C40F029F45F3F29F068
:101760000C94810C51110C94CC0C0C94870C0E949D
:10177000A90C68F39923B1F3552391F3951B550BED
:10178000BB27AA2762177307840738F09F5F5F4F54
:10179000220F331F441FAA1FA9F335D00E2E3AF093
:1017A000E0E832D091505040E695001CCAF72BD0AB
:1017B000FE2F29D0660F771F881FBB1F26173707FC
:1017C0004807AB07B0E809F0BB0B802DBF01FF272E
:1017D00093585F4F3AF09E3F510578F00C94810C7E
:1017E0000C94CC0C5F3FE4F3983ED4F38695779548
:1017F0006795B795F7959F5FC9F7880F911D9695E7
:10180000879597F90895E1E0660F771F881FBB1F42
:10181000621773078407BA0720F0621B730B840BEF
:10182000BA0BEE1F88F7E09508950E94B10C88F07E
:101830009F5798F0B92F9927B751B0F0E1F0660F94
:10184000771F881F991F1AF0BA95C9F714C0B130D5
:1018500091F00E94CB0CB1E008950C94CB0C672F53
:10186000782F8827B85F39F0B93FCCF38695779504
:101870006795B395D9F73EF49095809570956195ED
:101880007F4F8F4F9F4F0895E89409C097FB3EF418
:1018900090958095709561957F4F8F4F9F4F9923BD
:1018A000A9F0F92F96E9BB279395F695879577953B
:1018B0006795B795F111F8CFFAF4BB0F11F460FFFB
:1018C0001BC06F5F7F4F8F4F9F4F16C0882311F053
:1018D00096E911C0772321F09EE8872F762F05C067
:1018E000662371F096E8862F70E060E02AF09A9502
:1018F000660F771F881FDAF7880F9695879597F9F7
:10190000089597F99F6780E870E060E008959FEF81
:1019100080EC089500240A94161617061806090686
:10192000089500240A941216130614060506089555
:10193000092E0394000C11F4882352F0BB0F40F4DD
:10194000BF2B11F460FF04C06F5F7F4F8F4F9F4F1D
:10195000089557FD9058440F551F59F05F3F71F09F
:101960004795880F97FB991F61F09F3F79F0879506
:101970000895121613061406551FF2CF4695F1DF8F
:1019800008C0161617061806991FF1CF869571051F
:10199000610508940895E894BB2766277727CB0153
:1019A00097F908950E94E50C0C94980C0E948A0CFB
:1019B00038F00E94910C20F0952311F00C94810CCA
:1019C0000C94870C11240C94CC0C0E94A90C70F37D
:1019D000959FC1F3950F50E0551F629FF001729FD4
:1019E000BB27F00DB11D639FAA27F00DB11DAA1FE3
:1019F000649F6627B00DA11D661F829F2227B00D30
:101A0000A11D621F739FB00DA11D621F839FA00DBA
:101A1000611D221F749F3327A00D611D231F849F0A
:101A2000600D211D822F762F6A2F11249F57504061
:101A30009AF0F1F088234AF0EE0FFF1FBB1F661FDC
:101A4000771F881F91505040A9F79E3F510580F0A5
:101A50000C94810C0C94CC0C5F3FE4F3983ED4F3CF
:101A6000869577956795B795F795E7959F5FC1F749
:101A7000FE2B880F911D9695879597F908950F93E2
:101A80001F93CF93DF938230910510F482E090E0B2
:101A9000E091EA01F091EB0120E030E0A0E0B0E05D
:101AA000309719F1408151810281138148175907FC
:101AB000C8F08417950769F4109731F012960C93CB
:101AC000129713961C9327C00093EA011093EB0121
:101AD00022C02115310519F04217530718F49A0155
:101AE000BD01EF01DF01F801DBCF21153105F9F070
:101AF000281B390B2430310580F48A819B816115C4
:101B0000710521F0FB019383828304C09093EB0164
:101B10008093EA01FE01329644C0FE01E20FF31FFA
:101B20008193919322503109398328833AC02091BF
:101B3000E8013091E901232B41F420910501309116
:101B400006013093E9012093E801209103013091CF
:101B500004012115310541F42DB73EB7409107012D
:101B600050910801241B350BE091E801F091E90147
:101B7000E217F307A0F42E1B3F0B2817390778F064
:101B8000AC014E5F5F4F2417350748F04E0F5F1FC3
:101B90005093E9014093E8018193919302C0E0E002
:101BA000F0E0CF01DF91CF911F910F910895CF9376
:101BB000DF93009709F481C0FC01329713821282EF
:101BC000A091EA01B091EB01109781F4208131815D
:101BD000820F931F2091E8013091E90128173907FE
:101BE00051F5F093E901E093E80167C0ED0120E0D1
:101BF00030E0CE17DF0740F44A815B819E0141153A
:101C00005105F1F0EA01F5CFD383C28340815181C0
:101C1000840F951FC817D90759F488819981840FBB
:101C2000951F0296918380838A819B81938382830F
:101C30002115310529F4F093EB01E093EA013DC051
:101C4000E901FB83EA8349915991C40FD51FEC1731
:101C5000FD0761F480819181840F951F0296E9014F
:101C600099838883828193819B838A83E0E0F0E07B
:101C700012968D919C911397009719F0FD01DC014C
:101C8000F7CF8D919C9111979D012E5F3F4F820F51
:101C9000931F2091E8013091E9012817390769F471
:101CA000309729F41092EB011092EA0102C01382DE
:101CB0001282B093E901A093E801DF91CF910895DA
:101CC000AEE0B0E0E6E6FEE00C9421110D891E893D
:101CD00086E08C831A8309838FEF9FE79E838D8331
:101CE000AE01475E5F4F6F89788DCE0101960E94ED
:101CF000820EEF81F885E00FF11F10822E96E4E04E
:101D00000C943D11ABE0B0E0E8E8FEE00C94131158
:101D10006C017B018A01FC0117821682838181FF9D
:101D2000CCC1CE0101963C01F6019381F70193FDF0
:101D3000859193FF81917F01882309F4BAC185328F
:101D400039F493FD859193FF81917F01853229F4C8
:101D5000B60190E00E947910E7CF912C212C312C14
:101D6000FFE1F315D8F08B3279F038F4803279F056
:101D70008332A1F4232D20611DC08D3261F08033A8
:101D800069F4232D216016C0832D8260382EE32D47
:101D9000E4603E2E2AC0F32DF8601DC037FC2DC034
:101DA00020ED280F2A3040F08E32B9F436FC81C184
:101DB000232D2064322E19C036FE06C08AE0989E7C
:101DC000200D1124922E11C0EAE02E9E200D112428
:101DD000222EF32DF0623F2E08C08C3621F4832D85
:101DE0008068382E02C0883641F4F70193FD859152
:101DF00093FF81917F018111B3CF982F9F7D9554DF
:101E0000933028F40C5F1F4F9FE399830DC08336F6
:101E100031F0833771F0833509F059C021C0F801E2
:101E2000808189830E5F1F4F88248394912C5301F6
:101E300013C02801F2E04F0E511CF801A080B180C0
:101E400036FE03C0692D70E002C06FEF7FEFC50161
:101E50000E946E104C018201F32DFF773F2E16C0B9
:101E6000280122E0420E511CF801A080B18036FE0C
:101E700003C0692D70E002C06FEF7FEFC5010E94C3
:101E800063104C01F32DF0683F2E820133FC1BC020
:101E9000822D90E088169906B0F4B60180E290E0B9
:101EA0000E9479102A94F4CFF50137FC859137FE12
:101EB00081915F01B60190E00E94791021102A946F
:101EC00021E0821A91088114910471F7E8C08436E8
:101ED00011F0893641F5F80137FE07C06081718144
:101EE000828193810C5F1F4F08C060817181072E32
:101EF000000C880B990B0E5F1F4FF32DFF763F2EC2
:101F000097FF09C090958095709561957F4F8F4F91
:101F10009F4FF0683F2E2AE030E0A3010E94B510E9
:101F2000882E861845C0853731F4232D2F7EB22E9A
:101F30002AE030E025C0932D997FB92E8F36C1F06D
:101F400018F4883579F0B5C0803719F0883721F05A
:101F5000B0C0E92FE061BE2EB4FE0DC0FB2DF460D1
:101F6000BF2E09C034FE0AC0292F2660B22E06C03B
:101F700028E030E005C020E130E002C020E132E09E
:101F8000F801B7FE07C060817181828193810C5F87
:101F90001F4F06C06081718180E090E00E5F1F4F8F
:101FA000A3010E94B510882E8618FB2DFF773F2EC7
:101FB00036FE0DC0232D2E7FA22E891458F434FE38
:101FC0000BC032FC09C0832D8E7EA82E05C0B82C14
:101FD000A32C03C0B82C01C0B92CA4FE0FC0FE0175
:101FE000E80DF11D8081803321F49A2D997EA92E70
:101FF00009C0A2FE06C0B394B39404C08A2D8678AB
:1020000009F0B394A3FC11C0A0FE06C0B21488F47A
:10201000280C922C9B180EC0B21460F4B60180E21A
:1020200090E00E947910B394F7CFB21418F42B18F3
:1020300002C0982C212CA4FE10C0B60180E390E0D1
:102040000E947910A2FE17C0A1FC03C088E790E0AF
:1020500002C088E590E0B6010CC08A2D867859F060
:10206000A1FE02C08BE201C080E2A7FC8DE2B601B6
:1020700090E00E947910891438F4B60180E390E072
:102080000E9479109A94F7CF8A94F301E80DF11D1C
:102090008081B60190E00E9479108110F5CF222056
:1020A00009F442CEB60180E290E00E9479102A94B1
:1020B000F6CFF6018681978102C08FEF9FEF2B96B6
:1020C000E2E10C942F11FC01059061507040011069
:1020D000D8F7809590958E0F9F1F0895FC01615051
:1020E000704001900110D8F7809590958E0F9F1F3A
:1020F00008950F931F93CF93DF93FB01238121FD5D
:1021000003C08FEF9FEF2CC022FF16C0468157817E
:10211000248135814217530744F4A081B1819D0188
:102120002F5F3F4F318320838C93268137812F5F30
:102130003F4F3783268314C08B01EC01FB010084E1
:10214000F185E02D0995892BE1F6D80116968D9140
:102150009C911797019617969C938E931697CE0194
:10216000DF91CF911F910F910895FA01AA2728308E
:1021700051F1203181F1E8946F936E7F6E5F7F4F54
:102180008F4F9F4FAF4FB1E03ED0B4E03CD0670FD0
:10219000781F891F9A1FA11D680F791F8A1F911D23
:1021A000A11D6A0F711D811D911DA11D20D009F473
:1021B00068943F912AE0269F11243019305D3193B5
:1021C000DEF6CF010895462F4770405D4193B3E09E
:1021D0000FD0C9F7F6CF462F4F70405D4A3318F045
:1021E000495D31FD4052419302D0A9F7EACFB4E0F6
:1021F000A6959795879577956795BA95C9F70097AE
:102200006105710508959B01AC010A2E069457954E
:10221000479537952795BA95C9F7620F731F841FA5
:10222000951FA01D08952F923F924F925F926F923B
:102230007F928F929F92AF92BF92CF92DF92EF9256
:10224000FF920F931F93CF93DF93CDB7DEB7CA1BD7
:10225000DB0B0FB6F894DEBF0FBECDBF09942A8802
:10226000398848885F846E847D848C849B84AA84AA
:10227000B984C884DF80EE80FD800C811B81AA8137
:10228000B981CE0FD11D0FB6F894DEBF0FBECDBF02
:10229000ED01089510E0CFE3D0E004C0FE010E94FC
:0E22A0009D0B2196C034D107C9F7F894FFCFEB
:1022AE000404010000EC0120006E0074007B00822B
:1022BE00008A0092009B00A400AE00B800C300CFBD
:1022CE0000DC00E900F60005011501250137014982
:1022DE00015D01710187019F01B801D201ED010B72
:1022EE00022A024B026E029302BA02E3020F033E6F
:1022FE0003700368747470733A2F2F5468655374A7
:10230E007269782E636100303132333435363738A6
:10231E003961626364656600257500256900256371
:02232E000000AD
:00000001FF
