:100000000C9440000C9468000C9468000C946800F8
:100010000C9468000C9468000C9468000C946800C0
:100020000C9468000C9468000C9468000C946800B0
:100030000C9468000C9468000C9468000C946800A0
:100040000C9468000C9468000C9468000C94680090
:100050000C9468000C9468000C9468000C94680080
:100060000C9468000C9468000C9468000C94680070
:100070000C9468000C9468000C9468000904150442
:1000800011241FBECFEFD8E0DEBFCDBF11E0A0E04E
:10009000B1E0E8EEFBE002C005900D92AA34B10792
:1000A000D9F721E0AAE4B1E001C01D92AD39B20751
:1000B000E1F710E0CFE3D0E004C02197FE010E94F9
:1000C0004504CE33D107C9F70E94F3030C94E7052A
:1000D0000C9400002FE788E391E02150804090408D
:1000E000E1F700C00000599A8FE19EE40197F1F713
:1000F00000C0000059980895FC01499B04C09081FC
:100100009F5F9083FACF0895DC019AE4E0E0F1E08C
:1001100001900D929A95E1F70895089584B582644F
:1001200084BD85B5846085BD089514B817BC16BC20
:1001300015BC08951F93CF93DF93EC01E62FF0E0F9
:10014000BD97EE0FFF1FEC0FFD1F6081718180E0F6
:1001500090E00E94EC049B01AC0160E070E080E85C
:100160009FE30E944B0420E030E040E05FE30E9408
:100170007A0520E034E244EF56E40E947A050E94BA
:10018000BD04162FCE010E948E0017BDDF91CF91C6
:100190001F910895CF93DF93EC0161E40E949A00D0
:1001A0002FEF84E39CE0215080409040E1F700C0B5
:1001B000000061E4CE010E949A002FEF84E39CE0EE
:1001C000215080409040E1F700C00000DF91CF91C6
:1001D0000895CF93DF93EC016AE40E949A002FE721
:1001E0008AE196E0215080409040E1F700C0000095
:1001F0006AE4CE010E949A002FE78AE196E021503E
:1002000080409040E1F700C000006CE4CE010E9405
:100210009A002FE78AE196E0215080409040E1F774
:1002200000C000006AE4CE010E949A002FE78AE134
:1002300096E0215080409040E1F700C0000067E464
:10024000CE010E949A002FE78AE196E0215080407B
:100250009040E1F700C0000064E4CE010E949A00E3
:100260002FE78AE196E0215080409040E1F700C0FE
:10027000000067E4CE010E949A002FE78AE196E031
:10028000215080409040E1F700C000006AE4CE01B8
:100290000E949A002FE78AE196E02150804090402A
:1002A000E1F700C000006CE4CE010E949A002FE745
:1002B0008AE196E0215080409040E1F700C00000C4
:1002C0006AE4CE010E949A002FEF82E597E0215068
:1002D00080409040E1F700C0000067E4CE010E943A
:1002E0009A002FEF84E39CE0215080409040E1F79A
:1002F00000C000006AE4CE010E949A002FEF84E360
:100300009CE0215080409040E1F700C0000067E48D
:10031000CE010E949A002FEF84E39CE021508040A0
:100320009040E1F700C000006AE4CE010E949A000C
:100330002FEF84E39CE0215080409040E1F700C023
:10034000000067E4CE010E949A002FE78AE196E060
:10035000215080409040E1F700C000006FE4CE01E2
:100360000E949A002FE78AE196E021508040904059
:10037000E1F700C000006FE4CE010E949A002FE771
:100380008AE196E0215080409040E1F700C00000F3
:1003900061E5CE010E949A002FE78AE196E02150A4
:1003A00080409040E1F700C000006FE4CE010E9461
:1003B0009A002FE78AE196E0215080409040E1F7D3
:1003C00000C000006CE4CE010E949A002FE78AE191
:1003D00096E0215080409040E1F700C0000068E4C2
:1003E000CE010E949A002FE78AE196E021508040DA
:1003F0009040E1F700C000006CE4CE010E949A003A
:100400002FE78AE196E0215080409040E1F700C05C
:1004100000006FE4CE010E949A002FE78AE196E087
:10042000215080409040E1F700C0000061E5CE011E
:100430000E949A002FE78AE196E021508040904088
:10044000E1F700C000006FE4CE010E949A002FEF98
:1004500082E597E0215080409040E1F700C0000025
:100460006CE4CE010E949A002FEF84E39CE02150BF
:1004700080409040E1F700C000006AE4CE010E9495
:100480009A002FEF84E39CE0215080409040E1F7F8
:1004900000C0000067E4CE010E949A002FEF84E3C1
:1004A0009CE0215080409040E1F700C000006AE4E9
:1004B000CE010E949A002FEF84E39CE021508040FF
:1004C0009040E1F700C0000067E4CE010E949A006E
:1004D0002FEF82E597E0215080409040E1F700C087
:1004E00000006FE4CE010E949A002FEF84E39CE0AD
:1004F000215080409040E1F700C000006CE4CE0144
:100500000E949A002FEF84E39CE0215080409040AD
:10051000E1F700C000006AE4CE010E949A002FEFCC
:1005200084E39CE0215080409040E1F700C000004F
:1005300067E4CE010E949A002FEF84E39CE02150F3
:1005400080409040E1F700C000006FE4CE010E94BF
:100550009A002FEF84E39CE0215080409040E1F727
:1005600000C000006CE4CE010E949A002FEF84E3EB
:100570009CE0215080409040E1F700C000006AE418
:10058000CE010E949A002FEF84E39CE0215080402E
:100590009040E1F700C0000067E4CE010E949A009D
:1005A0002FEF84E39CE0215080409040E1F700C0B1
:1005B00000006FE4CE010E949A002FEF84E39CE0DC
:1005C000215080409040E1F700C000006CE4CE0173
:1005D0000E949A002FEF84E39CE0215080409040DD
:1005E000E1F700C000006AE4CE010E949A002FEFFC
:1005F00084E39CE0215080409040E1F700C000007F
:1006000067E4CE010E949A002FEF84E39CE0215022
:1006100080409040E1F700C000006AE4CE010E94F3
:100620009A002FEF84E39CE0215080409040E1F756
:1006300000C000006CE4CE010E949A002FE784E81D
:100640009EE1215080409040E1F700C000006EE440
:10065000CE010E949A002FEF84E39CE0215080405D
:100660009040E1F700C000006FE4CE010E949A00C4
:100670002FEF8EE994E2215080409040E1F700C0D6
:100680000000CE01DF91CF910C949500089581E098
:1006900085B9089582E085B9089581E085B98FE133
:1006A0009EE40197F1F700C0000082E085B98FE178
:1006B0009EE40197F1F700C00000089515B8089571
:1006C0000895FC012FEF629FC00111242CE93FEF38
:1006D000B9010E941D04615060835FEF459FC00116
:1006E0001124B9010E941D04615061830895089589
:1006F0002FEF629FC00111246CE97FEF0E941D045F
:100700008FEF860F0895109285001092840081EF7C
:100710008093800082E0809381001092820008958F
:10072000CF93DF93FC0180E38BB92FEF629FC00171
:100730001124CCE9DFEFBE010E941D042FEF260F2C
:1007400020833FEF439FC0011124BE010E941D047E
:1007500061506183622F70E070938B0060938A0018
:10076000818190E09093890080938800DF91CF9100
:100770000895FC0180EF8BB92FEF629FC001112417
:100780002CE93FEFB9010E941D04615060835FEFC7
:10079000459FC0011124B9010E941D04615061836D
:1007A00070E07093890060938800808190E090935E
:1007B0008B0080938A00089540E00C949003462FAC
:1007C00060E00C94900310928000109281001092CF
:1007D0006E00109289001092880010928B00109287
:1007E0008A001BB80895CF93DF931F92CDB7DEB771
:1007F000198281E08AB98FEF84B90E946A00CE0124
:1008000001960E947C008CE991E00E945E031982AF
:10081000F4CF8CE991E00E9446038AE991E00E94BE
:10082000600380E591E00C94840080E591E00E94F3
:100830008D008AE991E00C94770397FB072E16F45C
:10084000009407D077FD09D00E94310407FC05D041
:100850003EF4909581959F4F0895709561957F4FD7
:100860000895AA1BBB1B51E107C0AA1FBB1FA617F7
:10087000B70710F0A61BB70B881F991F5A95A9F749
:1008800080959095BC01CD010895EE0FFF1F059056
:10089000F491E02D09940E945F040C9440050E949D
:1008A000390558F00E94320540F029F45F3F29F0E5
:1008B0000C94290551110C9474050C942F050E9479
:1008C000510568F39923B1F3552391F3951B550B0B
:1008D000BB27AA2762177307840738F09F5F5F4F13
:1008E000220F331F441FAA1FA9F335D00E2E3AF052
:1008F000E0E832D091505040E695001CCAF72BD06A
:10090000FE2F29D0660F771F881FBB1F26173707BA
:100910004807AB07B0E809F0BB0B802DBF01FF27EC
:1009200093585F4F3AF09E3F510578F00C9429059B
:100930000C9474055F3FE4F3983ED4F38695779565
:100940006795B795F7959F5FC9F7880F911D9695A5
:10095000879597F90895E1E0660F771F881FBB1F01
:10096000621773078407BA0720F0621B730B840BAE
:10097000BA0BEE1F88F7E09508950E94590588F09C
:100980009F5798F0B92F9927B751B0F0E1F0660F53
:10099000771F881F991F1AF0BA95C9F714C0B13094
:1009A00091F00E947305B1E008950C947305672FD0
:1009B000782F8827B85F39F0B93FCCF386957795C3
:1009C0006795B395D9F73EF49095809570956195AC
:1009D0007F4F8F4F9F4F0895E89409C097FB3EF4D7
:1009E00090958095709561957F4F8F4F9F4F99237C
:1009F000A9F0F92F96E9BB279395F69587957795FA
:100A00006795B795F111F8CFFAF4BB0F11F460FFB9
:100A10001BC06F5F7F4F8F4F9F4F16C0882311F011
:100A200096E911C0772321F09EE8872F762F05C025
:100A3000662371F096E8862F70E060E02AF09A95C0
:100A4000660F771F881FDAF7880F9695879597F9B5
:100A5000089597F99F6780E870E060E008959FEF40
:100A600080EC089500240A94161617061806090645
:100A7000089500240A941216130614060506089514
:100A8000092E0394000C11F4882352F0BB0F40F49C
:100A9000BF2B11F460FF04C06F5F7F4F8F4F9F4FDC
:100AA000089557FD9058440F551F59F05F3F71F05E
:100AB0004795880F97FB991F61F09F3F79F08795C5
:100AC0000895121613061406551FF2CF4695F1DF4E
:100AD00008C0161617061806991FF1CF86957105DE
:100AE000610508940895E894BB2766277727CB0112
:100AF00097F908950E948D050C9440050E943205D7
:100B000038F00E94390520F0952311F00C94290546
:100B10000C942F0511240C9474050E94510570F358
:100B2000959FC1F3950F50E0551F629FF001729F92
:100B3000BB27F00DB11D639FAA27F00DB11DAA1FA1
:100B4000649F6627B00DA11D661F829F2227B00DEE
:100B5000A11D621F739FB00DA11D621F839FA00D79
:100B6000611D221F749F3327A00D611D231F849FC9
:100B7000600D211D822F762F6A2F11249F57504020
:100B80009AF0F1F088234AF0EE0FFF1FBB1F661F9B
:100B9000771F881F91505040A9F79E3F510580F064
:100BA0000C9429050C9474055F3FE4F3983ED4F34C
:100BB000869577956795B795F795E7959F5FC1F708
:100BC000FE2B880F911D9695879597F9089510E053
:100BD000CFE3D0E004C0FE010E9445042196C0345A
:080BE000D107C9F7F894FFCF1B
:100BE8006E0074007B0082008A0092009B00A400C3
:100BF800AE00B800C300CF00DC00E900F600050134
:100C080015012501370149015D01710187019F0126
:100C1800B801D201ED010B022A024B026E029302C7
:0A0C2800BA02E3020F033E0370035B
:00000001FF
