:100000000C9440000C9468000C9468000C946800F8
:100010000C9468000C9468000C9468000C946800C0
:100020000C9468000C9468000C9468000C946800B0
:100030000C9468000C9468000C9468000C946800A0
:100040000C9468000C9468000C9468000C94680090
:100050000C9468000C9468000C9468000C94680080
:100060000C9468000C9468000C9468000C94680070
:100070000C9468000C9468000C94680054016001B2
:1000800011241FBECFEFD8E0DEBFCDBF11E0A0E04E
:10009000B1E0E6E4F3E002C005900D92A430B107B0
:1000A000D9F721E0A4E0B1E001C01D92AA30B20767
:1000B000E1F710E0CFE3D0E004C02197FE010E94F9
:1000C0009001CE33D107C9F70E9446010C949601E6
:1000D0000C940000FC01108208950895FC0189B180
:1000E000982F947082FF0CC08FE19EE40197F1F786
:1000F00000C000004A9B06C081E0808391E003C0FD
:10010000108201C00895892F0895FC01808108950F
:10011000FC01608308950E946E0091E0811101C08E
:1001200090E0892F08950895613049F028F06230F9
:1001300041F0633049F0089581E082B9089565B9CE
:10014000089581E088B9089581E08BB90895613000
:1001500089F028F0623081F06330C1F0089581E0C9
:1001600082B98FE19EE40197F1F700C0000082E0C0
:1001700082B916C065B90CC081E085B98FE19EE4F3
:100180000197F1F700C0000065B90AC081E085B9A8
:100190008FE19EE40197F1F700C0000082E085B98D
:1001A0008FE19EE40197F1F700C0000008956130EF
:1001B00041F028F0623039F0633039F0089512B818
:1001C000089515B8089518B808951BB808950895AE
:1001D000FC012FEF629FC00111242CE93FEFB90110
:1001E0000E946801615060835FEF459FC001112448
:1001F000B9010E94680161506183089508952FEF4D
:10020000629FC00111246CE97FEF0E9468018FEFAB
:10021000860F0895109285001092840081EF8093DC
:10022000800081E0809381001092820008950F93F6
:100230001F93CF93DF93EC01062F142F0E940A0126
:100240002FEF029FC0011124ECE9FFEFBF010E94D4
:1002500068012FEF260F28833FEF139FC001112461
:10026000BF010E94680161506983622F70E0709342
:10027000890060938800898190E090938B0080933F
:100280008A00DF91CF911F910F9108958FEF8AB966
:1002900084B986E091E00E940A0142E362E386E0CD
:1002A00091E00E941701F9CF89E091E00E9493004C
:1002B00088E091E00E946A0086E091E00C94E700FB
:1002C00086E091E00E94FE0088E091E00C946D00D1
:1002D00097FB072E16F4009407D077FD09D00E94F3
:1002E0007C0107FC05D03EF4909581959F4F0895C1
:1002F000709561957F4F0895AA1BBB1B51E107C004
:10030000AA1FBB1FA617B70710F0A61BB70B881FA5
:10031000991F5A95A9F780959095BC01CD01089534
:10032000EE0FFF1F0590F491E02D099410E0CFE34C
:10033000D0E004C0FE010E9490012196C034D10794
:06034000C9F7F894FFCF9D
:0403460003040101AA
:00000001FF
